{"abi":[{"type":"constructor","inputs":[{"name":"_identityRegistry","type":"address","internalType":"address"}],"stateMutability":"nonpayable"},{"type":"function","name":"getAgentId","inputs":[{"name":"wallet","type":"address","internalType":"address"}],"outputs":[{"name":"","type":"uint256","internalType":"uint256"}],"stateMutability":"view"},{"type":"function","name":"hasJoined","inputs":[{"name":"agentId","type":"uint256","internalType":"uint256"}],"outputs":[{"name":"","type":"bool","internalType":"bool"}],"stateMutability":"view"},{"type":"function","name":"identityRegistry","inputs":[],"outputs":[{"name":"","type":"address","internalType":"contract IERC8004Identity"}],"stateMutability":"view"},{"type":"function","name":"isRegisteredAgent","inputs":[{"name":"wallet","type":"address","internalType":"address"}],"outputs":[{"name":"","type":"bool","internalType":"bool"}],"stateMutability":"view"},{"type":"function","name":"joinEcosystem","inputs":[{"name":"agentId","type":"uint256","internalType":"uint256"}],"outputs":[],"stateMutability":"nonpayable"},{"type":"function","name":"owner","inputs":[],"outputs":[{"name":"","type":"address","internalType":"address"}],"stateMutability":"view"},{"type":"function","name":"setIdentityRegistry","inputs":[{"name":"_newRegistry","type":"address","internalType":"address"}],"outputs":[],"stateMutability":"nonpayable"},{"type":"function","name":"totalJoinedAgents","inputs":[],"outputs":[{"name":"","type":"uint256","internalType":"uint256"}],"stateMutability":"view"},{"type":"function","name":"transferOwnership","inputs":[{"name":"newOwner","type":"address","internalType":"address"}],"outputs":[],"stateMutability":"nonpayable"},{"type":"event","name":"AgentJoined","inputs":[{"name":"agentId","type":"uint256","indexed":true,"internalType":"uint256"},{"name":"agentWallet","type":"address","indexed":true,"internalType":"address"}],"anonymous":false},{"type":"event","name":"IdentityRegistryUpdated","inputs":[{"name":"oldRegistry","type":"address","indexed":true,"internalType":"address"},{"name":"newRegistry","type":"address","indexed":true,"internalType":"address"}],"anonymous":false},{"type":"event","name":"OwnershipTransferred","inputs":[{"name":"oldOwner","type":"address","indexed":true,"internalType":"address"},{"name":"newOwner","type":"address","indexed":true,"internalType":"address"}],"anonymous":false},{"type":"error","name":"AgentNotRegistered","inputs":[]},{"type":"error","name":"InvalidAgentId","inputs":[]},{"type":"error","name":"NotOwner","inputs":[]},{"type":"error","name":"ZeroAddress","inputs":[]}],"bytecode":{"object":"0x6080346100b457601f6105ee38819003918201601f19168301916001600160401b038311848410176100b8578084926020946040528339810103126100b457516001600160a01b038116908190036100b45780156100805760018060a01b031990815f5416175f553390600154161760015560405161052190816100cd8239f35b60405162461bcd60e51b815260206004820152600c60248201526b5a65726f206164647265737360a01b6044820152606490fd5b5f80fd5b634e487b7160e01b5f52604160045260245ffdfe6080604081815260049182361015610015575f80fd5b5f3560e01c908163042324b6146103c957508063064ce3c61461025e578063134e18f41461023757806332d570041461021b5780638da5cb5b146101f3578063a825f799146101c7578063cbf3f8611461014b578063e21b38d2146101125763f2fde38b14610082575f80fd5b3461010e57602036600319011261010e576001600160a01b038235818116939084900361010e57600154918216928333036101015784156100f45750506001600160a01b03191682176001557f8be0079c531659141344cd1fd0a4f28419497f9722a3daafe3b4186f6b6457e05f80a3005b5163d92e233d60e01b8152fd5b516330cd747160e01b8152fd5b5f80fd5b50903461010e57602036600319011261010e5735906001600160a01b038216820361010e57610142602092610456565b90519015158152f35b503461010e57602036600319011261010e576001600160a01b0382358181169391929084900361010e57826001541633036101015783156100f45750505f54826bffffffffffffffffffffffff60a01b8216175f55167f926e2b005030b4e7ad67055071a9f001e485c47e2635fc68d0707a4daeb597a55f80a3005b503461010e57602036600319011261010e57602091355f526003825260ff815f20541690519015158152f35b503461010e575f36600319011261010e5760015490516001600160a01b039091168152602090f35b503461010e575f36600319011261010e57602091549051908152f35b503461010e575f36600319011261010e575f5490516001600160a01b039091168152602090f35b50903461010e576020918260031936011261010e575f5481516331a9108f60e11b8152833581850181905294916001600160a01b039083908390602490829085165afa9182156103bf575f92610390575b50806102ba8761048a565b92163314918215610383575b50501561034257600390335f526002815284835f2055845f52525f20805460ff8116156102ef57005b60ff1916600117905580545f19811461032f57600101905533907ff6c8350b083804ffd3ad36bf5e1d9b989091e2f76cfd1139310e318c4b953a0a5f80a3005b601182634e487b7160e01b5f525260245ffd5b905162461bcd60e51b815291820152601960248201527f4e6f74206167656e74206f776e6572206f722077616c6c6574000000000000006044820152606490fd5b9091501633145f806102c6565b6103b1919250833d85116103b8575b6103a98183610401565b810190610437565b905f6102af565b503d61039f565b84513d5f823e3d90fd5b9050823461010e57602036600319011261010e57356001600160a01b038116929083900361010e576020925f52600283525f20548152f35b90601f8019910116810190811067ffffffffffffffff82111761042357604052565b634e487b7160e01b5f52604160045260245ffd5b9081602091031261010e57516001600160a01b038116810361010e5790565b6001600160a01b03165f908152600260205260409020548015610485575f52600360205260ff60405f20541690565b505f90565b5f546040516233950960e01b81526004810192909252602090829060249082906001600160a01b03165afa5f91816104ca575b506104c757505f90565b90565b6104e491925060203d6020116103b8576103a98183610401565b905f6104bd56fea2646970667358221220ed66ab3040c287872abf19d39c520e8151c1f7997ff1079b29685a537472658864736f6c63430008180033","linkReferences":{}},"methodIdentifiers":{"getAgentId(address)":"042324b6","hasJoined(uint256)":"a825f799","identityRegistry()":"134e18f4","isRegisteredAgent(address)":"e21b38d2","joinEcosystem(uint256)":"064ce3c6","owner()":"8da5cb5b","setIdentityRegistry(address)":"cbf3f861","totalJoinedAgents()":"32d57004","transferOwnership(address)":"f2fde38b"},"id":0}