{"abi":[{"type":"constructor","inputs":[{"name":"_agentRegistry","type":"address","internalType":"address"},{"name":"_reputationManager","type":"address","internalType":"address"},{"name":"_protocolAPI","type":"address","internalType":"address"}],"stateMutability":"nonpayable"},{"type":"function","name":"FORCE_RESOLVE_DELAY","inputs":[],"outputs":[{"name":"","type":"uint256","internalType":"uint256"}],"stateMutability":"view"},{"type":"function","name":"MAX_PROBABILITY","inputs":[],"outputs":[{"name":"","type":"uint256","internalType":"uint256"}],"stateMutability":"view"},{"type":"function","name":"MIN_PROBABILITY","inputs":[],"outputs":[{"name":"","type":"uint256","internalType":"uint256"}],"stateMutability":"view"},{"type":"function","name":"WAD","inputs":[],"outputs":[{"name":"","type":"uint256","internalType":"uint256"}],"stateMutability":"view"},{"type":"function","name":"WAD_INT","inputs":[],"outputs":[{"name":"","type":"int256","internalType":"int256"}],"stateMutability":"view"},{"type":"function","name":"agentRegistry","inputs":[],"outputs":[{"name":"","type":"address","internalType":"contract AgentRegistry"}],"stateMutability":"view"},{"type":"function","name":"apiGated","inputs":[],"outputs":[{"name":"","type":"bool","internalType":"bool"}],"stateMutability":"view"},{"type":"function","name":"createQuery","inputs":[{"name":"question","type":"string","internalType":"string"},{"name":"alpha","type":"uint256","internalType":"uint256"},{"name":"k","type":"uint256","internalType":"uint256"},{"name":"flatReward","type":"uint256","internalType":"uint256"},{"name":"bondAmount","type":"uint256","internalType":"uint256"},{"name":"liquidityParam","type":"uint256","internalType":"uint256"},{"name":"initialPrice","type":"uint256","internalType":"uint256"},{"name":"fundingAmount","type":"uint256","internalType":"uint256"},{"name":"minReputation","type":"int128","internalType":"int128"},{"name":"reputationTag","type":"string","internalType":"string"},{"name":"creator","type":"address","internalType":"address"}],"outputs":[{"name":"queryId","type":"uint256","internalType":"uint256"}],"stateMutability":"nonpayable"},{"type":"function","name":"forceResolve","inputs":[{"name":"queryId","type":"uint256","internalType":"uint256"}],"outputs":[],"stateMutability":"nonpayable"},{"type":"function","name":"getPayoutAmount","inputs":[{"name":"queryId","type":"uint256","internalType":"uint256"},{"name":"reporter","type":"address","internalType":"address"}],"outputs":[{"name":"","type":"uint256","internalType":"uint256"}],"stateMutability":"view"},{"type":"function","name":"getQueryInfo","inputs":[{"name":"queryId","type":"uint256","internalType":"uint256"}],"outputs":[{"name":"question","type":"string","internalType":"string"},{"name":"currentPrice","type":"uint256","internalType":"uint256"},{"name":"creator","type":"address","internalType":"address"},{"name":"resolved","type":"bool","internalType":"bool"},{"name":"totalPool","type":"uint256","internalType":"uint256"},{"name":"reportCount","type":"uint256","internalType":"uint256"}],"stateMutability":"view"},{"type":"function","name":"getQueryParams","inputs":[{"name":"queryId","type":"uint256","internalType":"uint256"}],"outputs":[{"name":"alpha","type":"uint256","internalType":"uint256"},{"name":"k","type":"uint256","internalType":"uint256"},{"name":"flatReward","type":"uint256","internalType":"uint256"},{"name":"bondAmount","type":"uint256","internalType":"uint256"},{"name":"liquidityParam","type":"uint256","internalType":"uint256"},{"name":"createdAt","type":"uint256","internalType":"uint256"}],"stateMutability":"view"},{"type":"function","name":"getReport","inputs":[{"name":"queryId","type":"uint256","internalType":"uint256"},{"name":"index","type":"uint256","internalType":"uint256"}],"outputs":[{"name":"agentId","type":"uint256","internalType":"uint256"},{"name":"reporter","type":"address","internalType":"address"},{"name":"probability","type":"uint256","internalType":"uint256"},{"name":"priceBefore","type":"uint256","internalType":"uint256"},{"name":"priceAfter","type":"uint256","internalType":"uint256"},{"name":"bondAmount","type":"uint256","internalType":"uint256"},{"name":"sourceChain","type":"string","internalType":"string"},{"name":"timestamp","type":"uint256","internalType":"uint256"}],"stateMutability":"view"},{"type":"function","name":"getReportCount","inputs":[{"name":"queryId","type":"uint256","internalType":"uint256"}],"outputs":[{"name":"","type":"uint256","internalType":"uint256"}],"stateMutability":"view"},{"type":"function","name":"hasClaimed","inputs":[{"name":"","type":"uint256","internalType":"uint256"},{"name":"","type":"address","internalType":"address"}],"outputs":[{"name":"","type":"bool","internalType":"bool"}],"stateMutability":"view"},{"type":"function","name":"hasReported","inputs":[{"name":"","type":"uint256","internalType":"uint256"},{"name":"","type":"address","internalType":"address"}],"outputs":[{"name":"","type":"bool","internalType":"bool"}],"stateMutability":"view"},{"type":"function","name":"isQueryActive","inputs":[{"name":"queryId","type":"uint256","internalType":"uint256"}],"outputs":[{"name":"","type":"bool","internalType":"bool"}],"stateMutability":"view"},{"type":"function","name":"owner","inputs":[],"outputs":[{"name":"","type":"address","internalType":"address"}],"stateMutability":"view"},{"type":"function","name":"payouts","inputs":[{"name":"","type":"uint256","internalType":"uint256"},{"name":"","type":"address","internalType":"address"}],"outputs":[{"name":"","type":"uint256","internalType":"uint256"}],"stateMutability":"view"},{"type":"function","name":"protocolAPI","inputs":[],"outputs":[{"name":"","type":"address","internalType":"address"}],"stateMutability":"view"},{"type":"function","name":"queries","inputs":[{"name":"","type":"uint256","internalType":"uint256"}],"outputs":[{"name":"question","type":"string","internalType":"string"},{"name":"alpha","type":"uint256","internalType":"uint256"},{"name":"k","type":"uint256","internalType":"uint256"},{"name":"flatReward","type":"uint256","internalType":"uint256"},{"name":"bondAmount","type":"uint256","internalType":"uint256"},{"name":"liquidityParam","type":"uint256","internalType":"uint256"},{"name":"currentPrice","type":"uint256","internalType":"uint256"},{"name":"initialPrice","type":"uint256","internalType":"uint256"},{"name":"resolved","type":"bool","internalType":"bool"},{"name":"totalPool","type":"uint256","internalType":"uint256"},{"name":"creator","type":"address","internalType":"address"},{"name":"reportCount","type":"uint256","internalType":"uint256"},{"name":"createdAt","type":"uint256","internalType":"uint256"},{"name":"minReputation","type":"int128","internalType":"int128"},{"name":"reputationTag","type":"string","internalType":"string"}],"stateMutability":"view"},{"type":"function","name":"queryCount","inputs":[],"outputs":[{"name":"","type":"uint256","internalType":"uint256"}],"stateMutability":"view"},{"type":"function","name":"recordPayoutClaim","inputs":[{"name":"queryId","type":"uint256","internalType":"uint256"},{"name":"reporter","type":"address","internalType":"address"}],"outputs":[],"stateMutability":"nonpayable"},{"type":"function","name":"reports","inputs":[{"name":"","type":"uint256","internalType":"uint256"},{"name":"","type":"uint256","internalType":"uint256"}],"outputs":[{"name":"agentId","type":"uint256","internalType":"uint256"},{"name":"reporter","type":"address","internalType":"address"},{"name":"probability","type":"uint256","internalType":"uint256"},{"name":"priceBefore","type":"uint256","internalType":"uint256"},{"name":"priceAfter","type":"uint256","internalType":"uint256"},{"name":"bondAmount","type":"uint256","internalType":"uint256"},{"name":"sourceChain","type":"string","internalType":"string"},{"name":"timestamp","type":"uint256","internalType":"uint256"}],"stateMutability":"view"},{"type":"function","name":"reputationManager","inputs":[],"outputs":[{"name":"","type":"address","internalType":"contract ReputationManager"}],"stateMutability":"view"},{"type":"function","name":"setAPIGated","inputs":[{"name":"_gated","type":"bool","internalType":"bool"}],"outputs":[],"stateMutability":"nonpayable"},{"type":"function","name":"setAgentRegistry","inputs":[{"name":"_registry","type":"address","internalType":"address"}],"outputs":[],"stateMutability":"nonpayable"},{"type":"function","name":"setProtocolAPI","inputs":[{"name":"_api","type":"address","internalType":"address"}],"outputs":[],"stateMutability":"nonpayable"},{"type":"function","name":"setReputationManager","inputs":[{"name":"_manager","type":"address","internalType":"address"}],"outputs":[],"stateMutability":"nonpayable"},{"type":"function","name":"submitReport","inputs":[{"name":"queryId","type":"uint256","internalType":"uint256"},{"name":"probability","type":"uint256","internalType":"uint256"},{"name":"reporter","type":"address","internalType":"address"},{"name":"bondAmount","type":"uint256","internalType":"uint256"},{"name":"sourceChain","type":"string","internalType":"string"}],"outputs":[],"stateMutability":"nonpayable"},{"type":"function","name":"transferOwnership","inputs":[{"name":"newOwner","type":"address","internalType":"address"}],"outputs":[],"stateMutability":"nonpayable"},{"type":"event","name":"APIGateUpdated","inputs":[{"name":"gated","type":"bool","indexed":false,"internalType":"bool"}],"anonymous":false},{"type":"event","name":"PayoutRecorded","inputs":[{"name":"queryId","type":"uint256","indexed":true,"internalType":"uint256"},{"name":"reporter","type":"address","indexed":true,"internalType":"address"},{"name":"amount","type":"uint256","indexed":false,"internalType":"uint256"}],"anonymous":false},{"type":"event","name":"ProtocolAPIUpdated","inputs":[{"name":"oldAPI","type":"address","indexed":true,"internalType":"address"},{"name":"newAPI","type":"address","indexed":true,"internalType":"address"}],"anonymous":false},{"type":"event","name":"QueryCreated","inputs":[{"name":"queryId","type":"uint256","indexed":true,"internalType":"uint256"},{"name":"question","type":"string","indexed":false,"internalType":"string"},{"name":"alpha","type":"uint256","indexed":false,"internalType":"uint256"},{"name":"initialPrice","type":"uint256","indexed":false,"internalType":"uint256"},{"name":"creator","type":"address","indexed":true,"internalType":"address"}],"anonymous":false},{"type":"event","name":"QueryResolved","inputs":[{"name":"queryId","type":"uint256","indexed":true,"internalType":"uint256"},{"name":"finalPrice","type":"uint256","indexed":false,"internalType":"uint256"},{"name":"totalReports","type":"uint256","indexed":false,"internalType":"uint256"}],"anonymous":false},{"type":"event","name":"ReportSubmitted","inputs":[{"name":"queryId","type":"uint256","indexed":true,"internalType":"uint256"},{"name":"agentId","type":"uint256","indexed":true,"internalType":"uint256"},{"name":"reporter","type":"address","indexed":true,"internalType":"address"},{"name":"probability","type":"uint256","indexed":false,"internalType":"uint256"},{"name":"priceBefore","type":"uint256","indexed":false,"internalType":"uint256"},{"name":"reportIndex","type":"uint256","indexed":false,"internalType":"uint256"}],"anonymous":false},{"type":"error","name":"AgentNotEligible","inputs":[]},{"type":"error","name":"AgentNotRegistered","inputs":[]},{"type":"error","name":"AlreadyClaimed","inputs":[]},{"type":"error","name":"AlreadyReported","inputs":[]},{"type":"error","name":"ForceResolveNotReady","inputs":[]},{"type":"error","name":"InvalidParameters","inputs":[]},{"type":"error","name":"InvalidProbability","inputs":[]},{"type":"error","name":"NoPayout","inputs":[]},{"type":"error","name":"NotAuthorized","inputs":[]},{"type":"error","name":"NotOwner","inputs":[]},{"type":"error","name":"QueryNotActive","inputs":[]},{"type":"error","name":"QueryNotResolved","inputs":[]}],"bytecode":{"object":"0x608034620000e057601f62001ffc38819003918201601f19168301916001600160401b03831184841017620000e457808492606094604052833981010312620000e0576200004d81620000f8565b6200006960406200006160208501620000f8565b9301620000f8565b6001600160a01b03918216929091908190620000878515156200010d565b16620000958115156200010d565b60018060a01b031993846002541617600255836003541617600355600160a01b911660018060a81b031960015416171760015533905f5416175f55604051611eb290816200014a8239f35b5f80fd5b634e487b7160e01b5f52604160045260245ffd5b51906001600160a01b0382168203620000e057565b156200011557565b60405162461bcd60e51b815260206004820152600c60248201526b5a65726f206164647265737360a01b6044820152606490fdfe6080806040526004361015610012575f80fd5b5f3560e01c90816305666d7b146113fe575080630d1cfcae146113d65780630f0c3fc41461138d57806316342d371461136c57806328342ecf1461131c5780632d283db5146112a757806333dde7151461122157806334633f901461102857806337c22b34146111b5578063394ffd0314611190578063481bf8a81461106c5780634c725ab5146110285780634e2f787914610a855780635299287b14610a6857806356a837f414610a185780636a146024146101d15780636b868afb146109f057806374032ec11461097a57806381f82338146109165780638383bba1146108ee57806384a8945c146104fc578063873f6f9e146104b35780638da5cb5b1461048c5780639b2aded41461046f578063a34803ad146103cf578063ab9c67ad146102cc578063be87bcfc1461025f578063bec9376314610215578063cc40a8ca146101f3578063e3aef017146101d15763f2fde38b14610171575f80fd5b346101cd5760203660031901126101cd5761018a61143a565b5f54906001600160a01b039081831633036101bb5716906101ac821515611643565b6001600160a01b031916175f55005b6040516330cd747160e01b8152600490fd5b5f80fd5b346101cd575f3660031901126101cd576020604051670de0b6b3a76400008152f35b346101cd575f3660031901126101cd576020604051670dbd2fc137a300008152f35b346101cd5760203660031901126101cd576004355f526005602052602060405f2060048101541515908161024f575b506040519015158152f35b60ff915060080154161582610244565b346101cd5761028161027036611450565b905f52600660205260405f20611466565b5080546102c860018060a01b03600184015416926002810154600382015460048301546005840154916102bb6006600787015496016114ed565b93604051988998896115cd565b0390f35b346101cd5760203660031901126101cd576004355f52600560205260405f206102f4816114ed565b906001810154906002810154916003820154916004810154600582015460068301546007840154600885015460ff16600986015491600160a01b60019003600a8801541693600b88015495600c89015497600d8a0154600f0b99600e0161035a906114ed565b9b6040519e8f9e8f916101e080845283016103749161158f565b9d602083015260408201526060015260808d015260a08c015260c08b015260e08a015215156101008901526101208801526101408701526101608601526101808501526101a08401528281036101c08401526102c89161158f565b346101cd5760203660031901126101cd5760043560015460ff8160a01c16908161045b575b5061044957805f52600560205260405f2060ff60088201541661043757600b015415610425576104239061181d565b005b604051630e52390960e41b8152600490fd5b6040516365735ae760e01b8152600490fd5b60405163ea8e4eb560e01b8152600490fd5b6001600160a01b03163314159050826103f4565b346101cd575f3660031901126101cd576020600454604051908152f35b346101cd575f3660031901126101cd575f546040516001600160a01b039091168152602090f35b346101cd5760403660031901126101cd576104cc611424565b6004355f52600860205260405f209060018060a01b03165f52602052602060ff60405f2054166040519015158152f35b346101cd576101603660031901126101cd5760043567ffffffffffffffff81116101cd5761052e903690600401611615565b9061010435600f0b61010435036101cd576101243567ffffffffffffffff81116101cd57610560903690600401611615565b61014435936001600160a01b0393909290919084861686036101cd576001548560ff8260a01c1691826108e0575b5050610449576024351580156108cc575b61042557608435156104255760a4351561042557662386f26fc1000060c4351080156108b9575b6108a757600454946105d7866117a6565b600455855f52600560205260405f2067ffffffffffffffff861161082257610609866106038354611493565b83611757565b5f9086601f8111600114610841578061063991600e945f91610836575b508160011b915f199060031b1c19161790565b81555b602435600182015560443560028201556064356003820155608435600482015560a435600582015560c435600682015560c435600782015560e4356009820155600a8101838a166001600160601b0360a01b82541617905542600c820155600d81016001600160801b0319815416610104356001600160801b0316179055019667ffffffffffffffff841161082257878487946106e68a976106e060209d54611493565b85611757565b5f90601f831160011461078c57827f32e438f60baeeacba6783d6035fe30043d598600e101463b61434ba9183a3db098999593608097959361073d935f92610781575b50508160011b915f199060031b1c19161790565b90555b60405194859360608552816060860152858501375f8389018501526024358a84015260c43560408401521695601f01601f19168101030190a3604051908152f35b013590508e80610729565b979493929190601f19821698835f528c5f20915f5b8b81106108055750918391600193608099989796957f32e438f60baeeacba6783d6035fe30043d598600e101463b61434ba9183a3db09c9d106107ec575b505050811b019055610740565b01355f19600384901b60f8161c191690558d80806107df565b8282013584558d9a508c9950600190930192908e01908e016107a1565b634e487b7160e01b5f52604160045260245ffd5b90508801358c610626565b50805f5260205f205f925b601f198916841061088f57600e935088601f19811610610876575b5050600187811b01815561063c565b8701355f1960038a901b60f8161c191690558980610867565b8781013582556020938401936001909201910161084c565b604051631ddde97960e31b8152600490fd5b50670dbd2fc137a3000060c435116105c6565b50670de0b6b3a7640000602435101561059f565b90915016331415858861058e565b346101cd575f3660031901126101cd576001546040516001600160a01b039091168152602090f35b346101cd5760203660031901126101cd576004355f52600560205260c060405f206001810154906002810154906003810154600482015490600c600584015493015493604051958652602086015260408501526060840152608083015260a0820152f35b346101cd5760203660031901126101cd576004358015158091036101cd575f546001600160a01b031633036101bb576001805460ff60a01b191660a083901b60ff60a01b161790556040519081527f2aa5a717442f55ee307f58f535d4627a6b8c32b884d1a0197151e0d3b4bdf3dd90602090a1005b346101cd575f3660031901126101cd576003546040516001600160a01b039091168152602090f35b346101cd5760203660031901126101cd57610a3161143a565b5f546001600160a01b039190821633036101bb5716610a51811515611643565b6001600160601b0360a01b60035416176003555f80f35b346101cd575f3660031901126101cd5760206040516202a3008152f35b346101cd5760a03660031901126101cd576004356044356001600160a01b03811681036101cd5760643560843567ffffffffffffffff81116101cd57610acf903690600401611615565b909160015460ff8160a01c169081611014575b5061044957845f52600560205260405f209060ff600883015416610437576004820154801561043757865f52600760205260405f2060018060a01b0387165f5260205260ff60405f20541661100257811061042557662386f26fc10000602435108015610fef575b6108a75760025460405163710d9c6960e11b81526001600160a01b0387811660048301529091169390602081602481885afa908115610f7f575f91610fd0575b5015610fbe57604051630211925b60e11b81526001600160a01b038716600482015293602090859060249082905afa938415610f7f575f94610f8a575b50600d830154600f0b5f8113610eee575b506006830194855495602435905560098401610bf584825461174a565b9055875f52600660205260405f209160405193610100850185811067ffffffffffffffff8211176108225760409081528786526001600160a01b038a16602087015260243590860181905260608601899052608086015260a085015267ffffffffffffffff81116108225760405191610c78601f8301601f1916602001846114cb565b81835236828201116101cd57815f92602092838601378301015260c08301524260e083015280546801000000000000000081101561082257610cbf91600182018155611466565b919091610edb57805182556001820160018060a01b036020830151166001600160601b0360a01b82541617905560408101516002830155606081015160038301556080810151600483015560a0810151600583015560c081015180519067ffffffffffffffff821161082257610d4582610d3c6006870154611493565b60068701611757565b602090601f8311600114610e665792610d7d8360079460e094600b9998975f92610e5b5750508160011b915f199060031b1c19161790565b60068501555b0151910155855f52600760205260405f2060018060a01b0386165f5260205260405f20600160ff1982541617905501610dbc81546117a6565b8091555f1993848201918211610e475760607f323627f8b048ff78a816132f9cd2f8b43afd69da29d9391e4466ab08d7b34c309187936040519660243588526020880152604087015260018060a01b031694a4815f52600560205260405f2090430190438211610e47576001670de0b6b3a764000091015491400610610e3e57005b6104239061181d565b634e487b7160e01b5f52601160045260245ffd5b015190508d80610729565b90600685015f5260205f20915f5b601f1985168110610ec357508360e093600b98979693600193600797601f19811610610eab575b505050811b016006850155610d83565b01515f1960f88460031b161c191690558c8080610e9b565b91926020600181928685015181550194019201610e74565b634e487b7160e01b5f525f60045260245ffd5b6020610f209160018060a01b036003541660405180809581946352f9882360e11b8352600e8b01908c60048501611696565b03915afa908115610f7f575f91610f50575b5015610f3e5787610bd8565b60405163ce0ca13760e01b8152600490fd5b610f72915060203d602011610f78575b610f6a81836114cb565b81019061167e565b88610f32565b503d610f60565b6040513d5f823e3d90fd5b9093506020813d602011610fb6575b81610fa6602093836114cb565b810103126101cd57519287610bc7565b3d9150610f99565b6040516383bcfb4760e01b8152600490fd5b610fe9915060203d602011610f7857610f6a81836114cb565b88610b8a565b50670dbd2fc137a3000060243511610b4a565b60405163770c15e360e01b8152600490fd5b6001600160a01b0316331415905086610ae2565b346101cd5760403660031901126101cd57611041611424565b6004355f52600960205260405f209060018060a01b03165f52602052602060405f2054604051908152f35b346101cd5760403660031901126101cd57600435611088611424565b9060015460ff8160a01c16908161117c575b5061044957805f5260206005815260ff600860405f200154161561116a575f8281526008825260408082206001600160a01b0390951680835294835290205460ff1661115857815f526009815260405f20835f52815260405f2054908115611146577f9f8684873e5f5094fedbb70190e1ab56fabd995db373022a01120bef46817e0091835f526008825260405f20855f52825260405f20600160ff19825416179055604051908152a3005b60405163439ece7760e01b8152600490fd5b604051630c8d9eab60e31b8152600490fd5b60405163049627f560e01b8152600490fd5b6001600160a01b031633141590508361109a565b346101cd575f3660031901126101cd57602060ff60015460a01c166040519015158152f35b346101cd5760203660031901126101cd576111ce61143a565b5f546001600160a01b0390811633036101bb5780600154921691826001600160601b0360a01b821617600155167f3e1afb4f140d5094a49187f56cf5ef68c14651b147b76e5ce25994c0783a60c85f80a3005b346101cd5760203660031901126101cd576004355f52600560205261128760405f20600681015460018060a01b03600a830154169160ff600882015416600982015490611272600b840154936114ed565b9460405196879660c0885260c088019061158f565b946020870152604086015215156060850152608084015260a08301520390f35b346101cd576112b536611450565b905f52600660205260405f209081548110156101cd576112d491611466565b5080546102c860018060a01b036001840154169260028101549060038101546004820154600583015491600761130c600686016114ed565b94015494604051988998896115cd565b346101cd5760203660031901126101cd5761133561143a565b5f546001600160a01b039190821633036101bb5716611355811515611643565b6001600160601b0360a01b60025416176002555f80f35b346101cd575f3660031901126101cd576020604051662386f26fc100008152f35b346101cd5760403660031901126101cd576113a6611424565b6004355f52600760205260405f209060018060a01b03165f52602052602060ff60405f2054166040519015158152f35b346101cd575f3660031901126101cd576002546040516001600160a01b039091168152602090f35b346101cd5760203660031901126101cd576020906004355f526006825260405f20548152f35b602435906001600160a01b03821682036101cd57565b600435906001600160a01b03821682036101cd57565b60409060031901126101cd576004359060243590565b805482101561147f575f5260205f209060031b01905f90565b634e487b7160e01b5f52603260045260245ffd5b90600182811c921680156114c1575b60208310146114ad57565b634e487b7160e01b5f52602260045260245ffd5b91607f16916114a2565b90601f8019910116810190811067ffffffffffffffff82111761082257604052565b9060405191825f82546114ff81611493565b908184526020946001916001811690815f1461156d575060011461152f575b50505061152d925003836114cb565b565b5f90815285812095935091905b81831061155557505061152d93508201015f808061151e565b8554888401850152948501948794509183019161153c565b9250505061152d94925060ff191682840152151560051b8201015f808061151e565b91908251928382525f5b8481106115b9575050825f602080949584010152601f8019910116010190565b602081830181015184830182015201611599565b9897969361161095919360e09793610100958c5260018060a01b031660208c015260408b015260608a0152608089015260a08801528060c088015286019061158f565b930152565b9181601f840112156101cd5782359167ffffffffffffffff83116101cd57602083818601950101116101cd57565b1561164a57565b60405162461bcd60e51b815260206004820152600c60248201526b5a65726f206164647265737360a01b6044820152606490fd5b908160209103126101cd575180151581036101cd5790565b92908352602091600f0b6020840152606060408401525f9281546116b981611493565b928360608401526080906001926001811690815f1461172557506001146116e4575b50505050505090565b5f9081526020812095979650949293925b8386106117125750505050608092935001015f80808080806116db565b80548587018301529487019482016116f5565b949650505050506080935060ff191683830152151560051b01015f80808080806116db565b91908201809211610e4757565b601f821161176457505050565b5f5260205f20906020601f840160051c8301931061179c575b601f0160051c01905b818110611791575050565b5f8155600101611786565b909150819061177d565b5f198114610e475760010190565b67ffffffffffffffff81116108225760051b60200190565b81810292915f8212600160ff1b821416610e47578184051490151715610e4757565b9190915f8382019384129112908015821691151617610e4757565b805182101561147f5760209160051b010190565b90815f5260059160209260058452604090815f206008810195600196600160ff1982541617905560069160068252845f20928354938415611b5c575f19850190858211610e475760029161187091611466565b500154945f61187e866117b4565b9161188b895193846114cb565b868352601f1961189a886117b4565b0136878501375f9060028601548803888111905b8b8d8b8610611a925750505050505060099060098501549081811180611a89575b611a2e575b509293600e0192505f5b86811061191a5750505050507f2aa685cca87e83caa6aad060a047f6877ae695e7f2d4a556e6a51b3fb0842196949596508351928352820152a2565b8b908a5f5285875261192e818b5f20611466565b506119398286611809565b518c5f528489528b5f2060018060a01b038095840154165f5289528b5f205560039283820154906119838c61197d6004946119778688015484611b80565b92611b80565b90611b68565b9461271095868102968188051490151715611a1b575416915493823b156101cd578f948893670de0b6b3a76400008f5f946119d8869251988996879586946305ec94df60e01b865205600f0b908a8501611696565b03925af16119e9575b5050016118de565b9091925067ffffffffffffffff8211611a08575089528b905f806119e1565b604190634e487b7160e01b5f525260245ffd5b601183634e487b7160e01b5f525260245ffd5b5f5b888110611a3d57506118d4565b611a478186611809565b519083820291808304851490151715610e47578215611a7557828f9204611a6e8288611809565b5201611a30565b634e487b7160e01b5f52601260045260245ffd5b508015156118cf565b8584959697939492611aaa925f528a8d525f20611466565b5090610e47578f91611aef91868b8f878b10611af9575050015460038b0154611ad29161174a565b611adc888a611809565b525b611ae88789611809565b519061174a565b94019291906118ae565b8383670de0b6b3a76400009394611b26611b319461197d6003611b389a0154611977600488015484611b80565b9201549401546117cc565b05906117ee565b5f811315611b5057611b4a888a611809565b52611ade565b505f611b4a888a611809565b50505050505050509050565b81810392915f138015828513169184121617610e4757565b662386f26fc100008082101580611c7d575b15611c475782101580611c35575b15611bff57611bae82611c8f565b91670de0b6b3a7640000908103818111610e4757611bcb90611c8f565b91808203925f821283851281169084861390151617610e475782611bf5611bfc96611b31946117cc565b05936117cc565b90565b60405162461bcd60e51b815260206004820152600e60248201526d70206f7574206f662072616e676560901b6044820152606490fd5b50670dbd2fc137a30000821115611ba0565b60405162461bcd60e51b815260206004820152600e60248201526d71206f7574206f662072616e676560901b6044820152606490fd5b50670dbd2fc137a30000821115611b92565b8015611e405780670de0b6b3a76400008083129283611e27575b505f905b671bc16d674ec80000831215611e0957670de0b6b3a763ffff198301600184821316610e475781810290808205831490151715610e4757818401935f8386129112908015821691151617610e47578315611a7557600160ff1b938185145f19821416610e475782611db6611d8c611db0611dbe96611da4600d9660079805611d9e83611d9281611d3d85806117cc565b0580988584611d8284611d7c83611d7083611d6a83829f83611d5e916117cc565b059860038a05906117ee565b976117cc565b059460058605906117ee565b936117cc565b059e8f05906117ee565b9c6117cc565b059960098b05906117ee565b986117cc565b0595600b8705906117ee565b946117cc565b0505906117ee565b908160011b9180830560021490151715610e475767099e8db03256ce5d90818102918183051490151715610e4757611df5916117ee565b91611dfe575090565b8114610e47575f0390565b600290920591906001600160ff1b038114610e475760010190611cad565b6ec097ce7bc90715b34b9f10000000000591505f611ca9565b60405162461bcd60e51b815260206004820152601460248201527306c6e5761643a2078206d757374206265203e20360641b6044820152606490fdfea2646970667358221220e2705b09d9882b6aeb8d508a705d33f82d4901ed81296f63579af2c59910dc3864736f6c63430008180033","linkReferences":{}},"methodIdentifiers":{"FORCE_RESOLVE_DELAY()":"5299287b","MAX_PROBABILITY()":"cc40a8ca","MIN_PROBABILITY()":"16342d37","WAD()":"6a146024","WAD_INT()":"e3aef017","agentRegistry()":"0d1cfcae","apiGated()":"394ffd03","createQuery(string,uint256,uint256,uint256,uint256,uint256,uint256,uint256,int128,string,address)":"84a8945c","forceResolve(uint256)":"a34803ad","getPayoutAmount(uint256,address)":"34633f90","getQueryInfo(uint256)":"33dde715","getQueryParams(uint256)":"81f82338","getReport(uint256,uint256)":"be87bcfc","getReportCount(uint256)":"05666d7b","hasClaimed(uint256,address)":"873f6f9e","hasReported(uint256,address)":"0f0c3fc4","isQueryActive(uint256)":"bec93763","owner()":"8da5cb5b","payouts(uint256,address)":"4c725ab5","protocolAPI()":"8383bba1","queries(uint256)":"ab9c67ad","queryCount()":"9b2aded4","recordPayoutClaim(uint256,address)":"481bf8a8","reports(uint256,uint256)":"2d283db5","reputationManager()":"6b868afb","setAPIGated(bool)":"74032ec1","setAgentRegistry(address)":"28342ecf","setProtocolAPI(address)":"37c22b34","setReputationManager(address)":"56a837f4","submitReport(uint256,uint256,address,uint256,string)":"4e2f7879","transferOwnership(address)":"f2fde38b"},"id":23}