{"abi":[{"type":"constructor","inputs":[{"name":"_agentRegistry","type":"address","internalType":"address"},{"name":"_reputationManager","type":"address","internalType":"address"},{"name":"_protocolAPI","type":"address","internalType":"address"}],"stateMutability":"nonpayable"},{"type":"function","name":"FORCE_RESOLVE_DELAY","inputs":[],"outputs":[{"name":"","type":"uint256","internalType":"uint256"}],"stateMutability":"view"},{"type":"function","name":"MAX_PROBABILITY","inputs":[],"outputs":[{"name":"","type":"uint256","internalType":"uint256"}],"stateMutability":"view"},{"type":"function","name":"MIN_PROBABILITY","inputs":[],"outputs":[{"name":"","type":"uint256","internalType":"uint256"}],"stateMutability":"view"},{"type":"function","name":"WAD","inputs":[],"outputs":[{"name":"","type":"uint256","internalType":"uint256"}],"stateMutability":"view"},{"type":"function","name":"WAD_INT","inputs":[],"outputs":[{"name":"","type":"int256","internalType":"int256"}],"stateMutability":"view"},{"type":"function","name":"agentRegistry","inputs":[],"outputs":[{"name":"","type":"address","internalType":"contract AgentRegistry"}],"stateMutability":"view"},{"type":"function","name":"apiGated","inputs":[],"outputs":[{"name":"","type":"bool","internalType":"bool"}],"stateMutability":"view"},{"type":"function","name":"createQuery","inputs":[{"name":"question","type":"string","internalType":"string"},{"name":"alpha","type":"uint256","internalType":"uint256"},{"name":"k","type":"uint256","internalType":"uint256"},{"name":"flatReward","type":"uint256","internalType":"uint256"},{"name":"bondAmount","type":"uint256","internalType":"uint256"},{"name":"liquidityParam","type":"uint256","internalType":"uint256"},{"name":"initialPrice","type":"uint256","internalType":"uint256"},{"name":"fundingAmount","type":"uint256","internalType":"uint256"},{"name":"minReputation","type":"int128","internalType":"int128"},{"name":"reputationTag","type":"string","internalType":"string"},{"name":"creator","type":"address","internalType":"address"},{"name":"queryChain","type":"string","internalType":"string"},{"name":"source","type":"string","internalType":"string"}],"outputs":[{"name":"queryId","type":"uint256","internalType":"uint256"}],"stateMutability":"nonpayable"},{"type":"function","name":"forceResolve","inputs":[{"name":"queryId","type":"uint256","internalType":"uint256"}],"outputs":[],"stateMutability":"nonpayable"},{"type":"function","name":"getPayoutAmount","inputs":[{"name":"queryId","type":"uint256","internalType":"uint256"},{"name":"reporter","type":"address","internalType":"address"}],"outputs":[{"name":"","type":"uint256","internalType":"uint256"}],"stateMutability":"view"},{"type":"function","name":"getQueryInfo","inputs":[{"name":"queryId","type":"uint256","internalType":"uint256"}],"outputs":[{"name":"question","type":"string","internalType":"string"},{"name":"currentPrice","type":"uint256","internalType":"uint256"},{"name":"creator","type":"address","internalType":"address"},{"name":"resolved","type":"bool","internalType":"bool"},{"name":"totalPool","type":"uint256","internalType":"uint256"},{"name":"reportCount","type":"uint256","internalType":"uint256"}],"stateMutability":"view"},{"type":"function","name":"getQueryParams","inputs":[{"name":"queryId","type":"uint256","internalType":"uint256"}],"outputs":[{"name":"alpha","type":"uint256","internalType":"uint256"},{"name":"k","type":"uint256","internalType":"uint256"},{"name":"flatReward","type":"uint256","internalType":"uint256"},{"name":"bondAmount","type":"uint256","internalType":"uint256"},{"name":"liquidityParam","type":"uint256","internalType":"uint256"},{"name":"createdAt","type":"uint256","internalType":"uint256"}],"stateMutability":"view"},{"type":"function","name":"getQuerySource","inputs":[{"name":"queryId","type":"uint256","internalType":"uint256"}],"outputs":[{"name":"","type":"string","internalType":"string"}],"stateMutability":"view"},{"type":"function","name":"getReport","inputs":[{"name":"queryId","type":"uint256","internalType":"uint256"},{"name":"index","type":"uint256","internalType":"uint256"}],"outputs":[{"name":"agentId","type":"uint256","internalType":"uint256"},{"name":"reporter","type":"address","internalType":"address"},{"name":"probability","type":"uint256","internalType":"uint256"},{"name":"priceBefore","type":"uint256","internalType":"uint256"},{"name":"priceAfter","type":"uint256","internalType":"uint256"},{"name":"bondAmount","type":"uint256","internalType":"uint256"},{"name":"sourceChain","type":"string","internalType":"string"},{"name":"timestamp","type":"uint256","internalType":"uint256"}],"stateMutability":"view"},{"type":"function","name":"getReportCount","inputs":[{"name":"queryId","type":"uint256","internalType":"uint256"}],"outputs":[{"name":"","type":"uint256","internalType":"uint256"}],"stateMutability":"view"},{"type":"function","name":"hasClaimed","inputs":[{"name":"","type":"uint256","internalType":"uint256"},{"name":"","type":"address","internalType":"address"}],"outputs":[{"name":"","type":"bool","internalType":"bool"}],"stateMutability":"view"},{"type":"function","name":"hasReported","inputs":[{"name":"","type":"uint256","internalType":"uint256"},{"name":"","type":"address","internalType":"address"}],"outputs":[{"name":"","type":"bool","internalType":"bool"}],"stateMutability":"view"},{"type":"function","name":"isQueryActive","inputs":[{"name":"queryId","type":"uint256","internalType":"uint256"}],"outputs":[{"name":"","type":"bool","internalType":"bool"}],"stateMutability":"view"},{"type":"function","name":"owner","inputs":[],"outputs":[{"name":"","type":"address","internalType":"address"}],"stateMutability":"view"},{"type":"function","name":"payouts","inputs":[{"name":"","type":"uint256","internalType":"uint256"},{"name":"","type":"address","internalType":"address"}],"outputs":[{"name":"","type":"uint256","internalType":"uint256"}],"stateMutability":"view"},{"type":"function","name":"protocolAPI","inputs":[],"outputs":[{"name":"","type":"address","internalType":"address"}],"stateMutability":"view"},{"type":"function","name":"queries","inputs":[{"name":"","type":"uint256","internalType":"uint256"}],"outputs":[{"name":"question","type":"string","internalType":"string"},{"name":"alpha","type":"uint256","internalType":"uint256"},{"name":"k","type":"uint256","internalType":"uint256"},{"name":"flatReward","type":"uint256","internalType":"uint256"},{"name":"bondAmount","type":"uint256","internalType":"uint256"},{"name":"liquidityParam","type":"uint256","internalType":"uint256"},{"name":"currentPrice","type":"uint256","internalType":"uint256"},{"name":"initialPrice","type":"uint256","internalType":"uint256"},{"name":"resolved","type":"bool","internalType":"bool"},{"name":"totalPool","type":"uint256","internalType":"uint256"},{"name":"creator","type":"address","internalType":"address"},{"name":"reportCount","type":"uint256","internalType":"uint256"},{"name":"createdAt","type":"uint256","internalType":"uint256"},{"name":"minReputation","type":"int128","internalType":"int128"},{"name":"reputationTag","type":"string","internalType":"string"},{"name":"queryChain","type":"string","internalType":"string"},{"name":"source","type":"string","internalType":"string"},{"name":"maxRounds","type":"uint256","internalType":"uint256"}],"stateMutability":"view"},{"type":"function","name":"queryCount","inputs":[],"outputs":[{"name":"","type":"uint256","internalType":"uint256"}],"stateMutability":"view"},{"type":"function","name":"recordPayoutClaim","inputs":[{"name":"queryId","type":"uint256","internalType":"uint256"},{"name":"reporter","type":"address","internalType":"address"}],"outputs":[],"stateMutability":"nonpayable"},{"type":"function","name":"reports","inputs":[{"name":"","type":"uint256","internalType":"uint256"},{"name":"","type":"uint256","internalType":"uint256"}],"outputs":[{"name":"agentId","type":"uint256","internalType":"uint256"},{"name":"reporter","type":"address","internalType":"address"},{"name":"probability","type":"uint256","internalType":"uint256"},{"name":"priceBefore","type":"uint256","internalType":"uint256"},{"name":"priceAfter","type":"uint256","internalType":"uint256"},{"name":"bondAmount","type":"uint256","internalType":"uint256"},{"name":"sourceChain","type":"string","internalType":"string"},{"name":"timestamp","type":"uint256","internalType":"uint256"}],"stateMutability":"view"},{"type":"function","name":"reputationManager","inputs":[],"outputs":[{"name":"","type":"address","internalType":"contract ReputationManager"}],"stateMutability":"view"},{"type":"function","name":"setAPIGated","inputs":[{"name":"_gated","type":"bool","internalType":"bool"}],"outputs":[],"stateMutability":"nonpayable"},{"type":"function","name":"setAgentRegistry","inputs":[{"name":"_registry","type":"address","internalType":"address"}],"outputs":[],"stateMutability":"nonpayable"},{"type":"function","name":"setProtocolAPI","inputs":[{"name":"_api","type":"address","internalType":"address"}],"outputs":[],"stateMutability":"nonpayable"},{"type":"function","name":"setReputationManager","inputs":[{"name":"_manager","type":"address","internalType":"address"}],"outputs":[],"stateMutability":"nonpayable"},{"type":"function","name":"submitReport","inputs":[{"name":"queryId","type":"uint256","internalType":"uint256"},{"name":"probability","type":"uint256","internalType":"uint256"},{"name":"reporter","type":"address","internalType":"address"},{"name":"bondAmount","type":"uint256","internalType":"uint256"},{"name":"sourceChain","type":"string","internalType":"string"}],"outputs":[],"stateMutability":"nonpayable"},{"type":"function","name":"transferOwnership","inputs":[{"name":"newOwner","type":"address","internalType":"address"}],"outputs":[],"stateMutability":"nonpayable"},{"type":"event","name":"APIGateUpdated","inputs":[{"name":"gated","type":"bool","indexed":false,"internalType":"bool"}],"anonymous":false},{"type":"event","name":"PayoutRecorded","inputs":[{"name":"queryId","type":"uint256","indexed":true,"internalType":"uint256"},{"name":"reporter","type":"address","indexed":true,"internalType":"address"},{"name":"amount","type":"uint256","indexed":false,"internalType":"uint256"}],"anonymous":false},{"type":"event","name":"ProtocolAPIUpdated","inputs":[{"name":"oldAPI","type":"address","indexed":true,"internalType":"address"},{"name":"newAPI","type":"address","indexed":true,"internalType":"address"}],"anonymous":false},{"type":"event","name":"QueryCreated","inputs":[{"name":"queryId","type":"uint256","indexed":true,"internalType":"uint256"},{"name":"question","type":"string","indexed":false,"internalType":"string"},{"name":"alpha","type":"uint256","indexed":false,"internalType":"uint256"},{"name":"initialPrice","type":"uint256","indexed":false,"internalType":"uint256"},{"name":"creator","type":"address","indexed":true,"internalType":"address"}],"anonymous":false},{"type":"event","name":"QueryResolved","inputs":[{"name":"queryId","type":"uint256","indexed":true,"internalType":"uint256"},{"name":"finalPrice","type":"uint256","indexed":false,"internalType":"uint256"},{"name":"totalReports","type":"uint256","indexed":false,"internalType":"uint256"}],"anonymous":false},{"type":"event","name":"ReportSubmitted","inputs":[{"name":"queryId","type":"uint256","indexed":true,"internalType":"uint256"},{"name":"agentId","type":"uint256","indexed":true,"internalType":"uint256"},{"name":"reporter","type":"address","indexed":true,"internalType":"address"},{"name":"probability","type":"uint256","indexed":false,"internalType":"uint256"},{"name":"priceBefore","type":"uint256","indexed":false,"internalType":"uint256"},{"name":"reportIndex","type":"uint256","indexed":false,"internalType":"uint256"}],"anonymous":false},{"type":"error","name":"AgentNotEligible","inputs":[]},{"type":"error","name":"AgentNotRegistered","inputs":[]},{"type":"error","name":"AlreadyClaimed","inputs":[]},{"type":"error","name":"AlreadyReported","inputs":[]},{"type":"error","name":"ChainMismatch","inputs":[]},{"type":"error","name":"ForceResolveNotReady","inputs":[]},{"type":"error","name":"InsufficientFunding","inputs":[]},{"type":"error","name":"InvalidParameters","inputs":[]},{"type":"error","name":"InvalidProbability","inputs":[]},{"type":"error","name":"NoPayout","inputs":[]},{"type":"error","name":"NotAuthorized","inputs":[]},{"type":"error","name":"NotOwner","inputs":[]},{"type":"error","name":"QueryNotActive","inputs":[]},{"type":"error","name":"QueryNotResolved","inputs":[]}],"bytecode":{"object":"0x608034620000e057601f6200248e38819003918201601f19168301916001600160401b03831184841017620000e457808492606094604052833981010312620000e0576200004d81620000f8565b6200006960406200006160208501620000f8565b9301620000f8565b6001600160a01b03918216929091908190620000878515156200010d565b16620000958115156200010d565b60018060a01b031993846002541617600255836003541617600355600160a01b911660018060a81b031960015416171760015533905f5416175f5560405161234490816200014a8239f35b5f80fd5b634e487b7160e01b5f52604160045260245ffd5b51906001600160a01b0382168203620000e057565b156200011557565b60405162461bcd60e51b815260206004820152600c60248201526b5a65726f206164647265737360a01b6044820152606490fdfe610120806040526004361015610013575f80fd5b5f3560e01c90816305666d7b14611820575080630d1cfcae146117f85780630f0c3fc4146117af57806316342d371461178e57806328342ecf1461173e5780632d283db5146116c957806333dde7151461164357806334633f901461144a57806337c22b34146115d7578063394ffd03146115b2578063481bf8a81461148e5780634c725ab51461144a5780634e2f787914610dfe5780635299287b14610de157806356a837f414610d915780636a146024146101dd5780636b868afb14610d6957806374032ec114610cf357806381f8233814610c8f5780638383bba114610c67578063873f6f9e14610c1e5780638c3b925b14610bdd5780638da5cb5b14610bb65780639b2aded414610b99578063a34803ad14610b1d578063ab9c67ad14610984578063b331ba02146102d8578063be87bcfc1461026b578063bec9376314610221578063cc40a8ca146101ff578063e3aef017146101dd5763f2fde38b1461017d575f80fd5b346101d95760203660031901126101d95761019661185c565b5f54906001600160a01b039081831633036101c75716906101b8821515611a77565b6001600160a01b031916175f55005b6040516330cd747160e01b8152600490fd5b5f80fd5b346101d9575f3660031901126101d9576020604051670de0b6b3a76400008152f35b346101d9575f3660031901126101d9576020604051670dbd2fc137a300008152f35b346101d95760203660031901126101d9576004355f526005602052602060405f2060048101541515908161025b575b506040519015158152f35b60ff915060080154161582610250565b346101d95761028d61027c36611872565b905f52600660205260405f20611888565b5080546102d460018060a01b03600184015416926002810154600382015460048301546005840154916102c7600660078701549601611922565b9360405198899889611a02565b0390f35b346101d9576101a03660031901126101d9576004356001600160401b0381116101d957610309903690600401611a4a565b9060249161010435600f0b61010435036101d957610124356001600160401b0381116101d95761033d903690600401611a4a565b929061014435906001600160a01b03821682036101d9576001600160401b0361016435116101d9576103753661016435600401611a4a565b9091610184356001600160401b0381116101d957610397903690600401611a4a565b92909360015460ff8160a01c169081610970575b5061095e57893515801561094b575b61093957608435156109395760a4351561093957662386f26fc1000060c435108015610926575b6109145767099e8db03256ce5d8060a435029060a4358204036109015761042090670de0b6b3a7640000610419604435606435611c40565b9104611bc2565b60e435106108ef57600454986104358a611c32565b600455895f52600560205260405f20936001600160401b038a1161086c576104678a61046187546118b5565b87611be3565b5f8a601f811160011461088a5780610493925f9161087f575b508160011b915f199060031b1c19161790565b85555b8b35600186015560443560028601556064356003860155608435600486015560a435600586015560c43560068601819055600786015560e4356009860155600a850180546001600160a01b038a166001600160a01b031990911617905542600c860155600d850180546fffffffffffffffffffffffffffffffff19166fffffffffffffffffffffffffffffffff61010435161790556001600160401b03821161086c576105538261054a600e8801546118b5565b600e8801611be3565b5f90601f83116001146107ff5761058192915f91836107f4575b50508160011b915f199060031b1c19161790565b600e8401555b6001600160401b0382116107e1576105af826105a6600f8601546118b5565b600f8601611be3565b5f90601f83116001146107725791806105e092601095945f926107675750508160011b915f199060031b1c19161790565b600f8201555b01916001600160401b038211610754579682826020996106138a979561060d8b98546118b5565b85611be3565b5f90601f83116001146106be57827f32e438f60baeeacba6783d6035fe30043d598600e101463b61434ba9183a3db0989995936080979593610669935f926106b35750508160011b915f199060031b1c19161790565b90555b60405194859360608552816060860152858501375f838901850152358983015260c43560408301526001600160a01b031695601f01601f19168101030190a3604051908152f35b013590508e8061056d565b979493929190601f19821698835f528c5f20915f5b8b81106107375750918391600193608099989796957f32e438f60baeeacba6783d6035fe30043d598600e101463b61434ba9183a3db09c9d1061071e575b505050811b01905561066c565b01355f19600384901b60f8161c191690558d8080610711565b8282013584558d9a508c9950600190930192908e01908e016106d3565b87634e487b7160e01b5f5260416004525ffd5b013590508c8061056d565b600f84015f5260205f20915f5b601f19851681106107c9575091839160019360109695601f198116106107b0575b505050811b01600f8201556105e6565b01355f19600384901b60f8161c191690558b80806107a0565b9092602060018192868601358155019401910161077f565b89634e487b7160e01b5f5260416004525ffd5b013590508d8061056d565b600e86939293015f5260205f20905f935b601f1984168510610854576001945083601f1981161061083b575b505050811b01600e840155610587565b01355f19600384901b60f8161c191690558c808061082b565b81810135835560209485019460019093019201610810565b8b634e487b7160e01b5f5260416004525ffd5b90508b01358f610480565b50855f5260205f20905f5b8b601f198e1682106108d75750508b601f198116106108be575b505060018a811b018555610496565b8a01355f1960038d901b60f8161c191690558c806108af565b60018394602093948493013581550193019101610895565b6040516357e000b160e01b8152600490fd5b8a634e487b7160e01b5f5260116004525ffd5b604051631ddde97960e31b8152600490fd5b50670dbd2fc137a3000060c435116103e1565b604051630e52390960e41b8152600490fd5b50670de0b6b3a76400008a3510156103ba565b60405163ea8e4eb560e01b8152600490fd5b6001600160a01b031633141590508b6103ab565b346101d95760203660031901126101d9576004355f52600560205260405f20806109ad81611922565b600182015490600283015460e0526003830154610100526004830154600584015460068501546007860154600887015460ff16600988015491600160a01b60019003600a8a01541693600b8a015495600c8b015497600d8c015499600e8d01610a1590611922565b9c600f01610a2290611922565b9d610a2f60108201611922565b6080526011015460a05260405160c0526102408060c0515260c05101610a54916119c4565b9a60c0516020015260e05160c051604001526101005160c0516060015260c0516080015260c05160a0015260c05160c0015260c05160e00152151560c051610100015260c051610120015260c051610140015260c051610160015260c0516101800152600f0b60c0516101a0015260c051810360c0516101c00152610ad8916119c4565b60c051810360c0516101e00152610aee916119c4565b60c051810360c051610200015260805190610b08916119c4565b60a05160c051610220015260c051900360c051f35b346101d95760203660031901126101d95760043560015460ff8160a01c169081610b85575b5061095e57805f52600560205260405f2060ff600882015416610b7357600b01541561093957610b7190611cbb565b005b6040516365735ae760e01b8152600490fd5b6001600160a01b0316331415905082610b42565b346101d9575f3660031901126101d9576020600454604051908152f35b346101d9575f3660031901126101d9575f546040516001600160a01b039091168152602090f35b346101d95760203660031901126101d9576004355f5260056020526102d4610c0a601060405f2001611922565b6040519182916020835260208301906119c4565b346101d95760403660031901126101d957610c37611846565b6004355f52600860205260405f209060018060a01b03165f52602052602060ff60405f2054166040519015158152f35b346101d9575f3660031901126101d9576001546040516001600160a01b039091168152602090f35b346101d95760203660031901126101d9576004355f52600560205260c060405f206001810154906002810154906003810154600482015490600c600584015493015493604051958652602086015260408501526060840152608083015260a0820152f35b346101d95760203660031901126101d9576004358015158091036101d9575f546001600160a01b031633036101c7576001805460ff60a01b191660a083901b60ff60a01b161790556040519081527f2aa5a717442f55ee307f58f535d4627a6b8c32b884d1a0197151e0d3b4bdf3dd90602090a1005b346101d9575f3660031901126101d9576003546040516001600160a01b039091168152602090f35b346101d95760203660031901126101d957610daa61185c565b5f546001600160a01b039190821633036101c75716610dca811515611a77565b6001600160601b0360a01b60035416176003555f80f35b346101d9575f3660031901126101d95760206040516202a3008152f35b346101d95760a03660031901126101d95760043560443560246001600160a01b03821682036101d9576084356001600160401b0381116101d957610e46903690600401611a4a565b60015460ff8160a01c169081611436575b5061095e57845f52600560205260405f2060ff600882015416610b735760048101548015610b7357865f52600760205260405f2060018060a01b0387165f5260205260ff60405f205416611424576064351061093957662386f26fc100008435108015611412575b61091457610ece368385611ab2565b60208151910120604051610ef081610ee981600f8701611af7565b03826118ed565b60208151910120036114005760025460405163710d9c6960e11b81526001600160a01b03878116600483015290911692906020818781875afa908115611390575f916113e1575b50156113cf57604051630211925b60e11b81526001600160a01b0387166004820152926020908490879082905afa928315611390575f9361139b575b50600d820154600f0b5f81136112ff575b5060068201938454948635905560098301610fa26064358254611bc2565b9055875f52600660205260405f209060405192836101008101106001600160401b036101008601111761075457610100840160409081528685526001600160a01b038a166020860152883590850181905260608501889052608085015260643560a085015261101391369190611ab2565b60c08301524260e0830152805490680100000000000000008210156112ec579061104291600182018155611888565b9190916112da57805182556001820160018060a01b036020830151166001600160601b0360a01b82541617905560408101516002830155606081015160038301556080810151600483015560a0810151600583015560c08101518051906001600160401b038211610754576110c7826110be60068701546118b5565b60068701611be3565b602090601f831160011461126557926110ff8360079460e094600b9998975f9261125a5750508160011b915f199060031b1c19161790565b60068501555b0151910155865f52600760205260405f2060018060a01b0387165f5260205260405f20600160ff19825416179055019361113f8554611c32565b8095555f199485810190811161124757604080518635815260208101959095528401526001600160a01b03169185907f323627f8b048ff78a816132f9cd2f8b43afd69da29d9391e4466ab08d7b34c3090606090a4825f52600560205260405f209143019043821161123457600b8301549060405191602083019340845242604084015244606084015285608084015260a08301523360601b60c083015260b4825260e08201908282106001600160401b03831117611221575091670de0b6b3a764000091600193604052519020069101541161121857005b610b7190611cbb565b634e487b7160e01b5f9081526041600452fd5b634e487b7160e01b5f9081526011600452fd5b84634e487b7160e01b5f5260116004525ffd5b015190508e8061056d565b90600685015f5260205f20915f5b601f19851681106112c257508360e093600b98979693600193600797601f198116106112aa575b505050811b016006850155611105565b01515f1960f88460031b161c191690558d808061129a565b91926020600181928685015181550194019201611273565b85634e487b7160e01b5f525f6004525ffd5b86634e487b7160e01b5f5260416004525ffd5b60206113319160018060a01b036003541660405180809581946352f9882360e11b8352600e8a01908b60048501611ba0565b03915afa908115611390575f91611361575b501561134f5787610f84565b60405163ce0ca13760e01b8152600490fd5b611383915060203d602011611389575b61137b81836118ed565b810190611b88565b88611343565b503d611371565b6040513d5f823e3d90fd5b9092506020813d6020116113c7575b816113b7602093836118ed565b810103126101d957519187610f73565b3d91506113aa565b6040516383bcfb4760e01b8152600490fd5b6113fa915060203d6020116113895761137b81836118ed565b88610f37565b60405163a6226dc560e01b8152600490fd5b50670dbd2fc137a30000843511610ebf565b60405163770c15e360e01b8152600490fd5b6001600160a01b0316331415905086610e57565b346101d95760403660031901126101d957611463611846565b6004355f52600960205260405f209060018060a01b03165f52602052602060405f2054604051908152f35b346101d95760403660031901126101d9576004356114aa611846565b9060015460ff8160a01c16908161159e575b5061095e57805f5260206005815260ff600860405f200154161561158c575f8281526008825260408082206001600160a01b0390951680835294835290205460ff1661157a57815f526009815260405f20835f52815260405f2054908115611568577f9f8684873e5f5094fedbb70190e1ab56fabd995db373022a01120bef46817e0091835f526008825260405f20855f52825260405f20600160ff19825416179055604051908152a3005b60405163439ece7760e01b8152600490fd5b604051630c8d9eab60e31b8152600490fd5b60405163049627f560e01b8152600490fd5b6001600160a01b03163314159050836114bc565b346101d9575f3660031901126101d957602060ff60015460a01c166040519015158152f35b346101d95760203660031901126101d9576115f061185c565b5f546001600160a01b0390811633036101c75780600154921691826001600160601b0360a01b821617600155167f3e1afb4f140d5094a49187f56cf5ef68c14651b147b76e5ce25994c0783a60c85f80a3005b346101d95760203660031901126101d9576004355f5260056020526116a960405f20600681015460018060a01b03600a830154169160ff600882015416600982015490611694600b84015493611922565b9460405196879660c0885260c08801906119c4565b946020870152604086015215156060850152608084015260a08301520390f35b346101d9576116d736611872565b905f52600660205260405f209081548110156101d9576116f691611888565b5080546102d460018060a01b036001840154169260028101549060038101546004820154600583015491600761172e60068601611922565b9401549460405198899889611a02565b346101d95760203660031901126101d95761175761185c565b5f546001600160a01b039190821633036101c75716611777811515611a77565b6001600160601b0360a01b60025416176002555f80f35b346101d9575f3660031901126101d9576020604051662386f26fc100008152f35b346101d95760403660031901126101d9576117c8611846565b6004355f52600760205260405f209060018060a01b03165f52602052602060ff60405f2054166040519015158152f35b346101d9575f3660031901126101d9576002546040516001600160a01b039091168152602090f35b346101d95760203660031901126101d9576020906004355f526006825260405f20548152f35b602435906001600160a01b03821682036101d957565b600435906001600160a01b03821682036101d957565b60409060031901126101d9576004359060243590565b80548210156118a1575f5260205f209060031b01905f90565b634e487b7160e01b5f52603260045260245ffd5b90600182811c921680156118e3575b60208310146118cf57565b634e487b7160e01b5f52602260045260245ffd5b91607f16916118c4565b90601f801991011681019081106001600160401b0382111761190e57604052565b634e487b7160e01b5f52604160045260245ffd5b9060405191825f8254611934816118b5565b908184526020946001916001811690815f146119a25750600114611964575b505050611962925003836118ed565b565b5f90815285812095935091905b81831061198a57505061196293508201015f8080611953565b85548884018501529485019487945091830191611971565b9250505061196294925060ff191682840152151560051b8201015f8080611953565b91908251928382525f5b8481106119ee575050825f602080949584010152601f8019910116010190565b6020818301810151848301820152016119ce565b98979693611a4595919360e09793610100958c5260018060a01b031660208c015260408b015260608a0152608089015260a08801528060c08801528601906119c4565b930152565b9181601f840112156101d9578235916001600160401b0383116101d957602083818601950101116101d957565b15611a7e57565b60405162461bcd60e51b815260206004820152600c60248201526b5a65726f206164647265737360a01b6044820152606490fd5b9291926001600160401b03821161190e5760405191611adb601f8201601f1916602001846118ed565b8294818452818301116101d9578281602093845f960137010152565b80545f9392611b05826118b5565b918282526020936001916001811690815f14611b695750600114611b2b575b5050505050565b90939495505f92919252835f2092845f945b838610611b5557505050500101905f80808080611b24565b805485870183015294019385908201611b3d565b60ff19168685015250505090151560051b010191505f80808080611b24565b908160209103126101d9575180151581036101d95790565b611bbf93926060928252600f0b60208201528160408201520190611af7565b90565b91908201809211611bcf57565b634e487b7160e01b5f52601160045260245ffd5b601f8211611bf057505050565b5f5260205f20906020601f840160051c83019310611c28575b601f0160051c01905b818110611c1d575050565b5f8155600101611c12565b9091508190611c09565b5f198114611bcf5760010190565b81810292918115918404141715611bcf57565b6001600160401b03811161190e5760051b60200190565b81810292915f8212600160ff1b821416611bcf578184051490151715611bcf57565b9190915f8382019384129112908015821691151617611bcf57565b80518210156118a15760209160051b010190565b90815f5260059160209260058452604090815f206008810195600196600160ff1982541617905560069160068252845f20928354938415611ff1575f19850190858211611bcf57600291611d0e91611888565b500154945f611d1c86611c53565b91611d29895193846118ed565b868352601f19611d3888611c53565b0136878501375f9060028601548803888111905b8b8d8b8610611f275750505050505060099060098501549081811180611f1e575b611ecb575b509293600e0192505f5b868110611db85750505050507f2aa685cca87e83caa6aad060a047f6877ae695e7f2d4a556e6a51b3fb0842196949596508351928352820152a2565b8b908a5f52858752611dcc818b5f20611888565b50611dd78286611ca7565b518c5f528489528b5f2060018060a01b038095840154165f5289528b5f20556003928382015490611e218c611e1b600494611e158688015484612015565b92612015565b90611ffd565b9461271095868102968188051490151715611eb8575416915493823b156101d9578f948893670de0b6b3a76400008f5f94611e76869251988996879586946305ec94df60e01b865205600f0b908a8501611ba0565b03925af1611e87575b505001611d7c565b909192506001600160401b038211611ea5575089528b905f80611e7f565b604190634e487b7160e01b5f525260245ffd5b601183634e487b7160e01b5f525260245ffd5b5f5b888110611eda5750611d72565b611eee83611ee88388611ca7565b51611c40565b908215611f0a57828f9204611f038288611ca7565b5201611ecd565b634e487b7160e01b5f52601260045260245ffd5b50801515611d6d565b8584959697939492611f3f925f528a8d525f20611888565b5090611bcf578f91611f8491868b8f878b10611f8e575050015460038b0154611f6791611bc2565b611f71888a611ca7565b525b611f7d8789611ca7565b5190611bc2565b9401929190611d4c565b8383670de0b6b3a76400009394611fbb611fc694611e1b6003611fcd9a0154611e15600488015484612015565b920154940154611c6a565b0590611c8c565b5f811315611fe557611fdf888a611ca7565b52611f73565b505f611fdf888a611ca7565b50505050505050509050565b81810392915f138015828513169184121617611bcf57565b662386f26fc10000808210158061210f575b156120d957821015806120c7575b156120915761204382612121565b91670de0b6b3a7640000908103818111611bcf5761206090612121565b91808203925f821283851281169084861390151617611bcf578261208a611bbf96611fc694611c6a565b0593611c6a565b60405162461bcd60e51b815260206004820152600e60248201526d70206f7574206f662072616e676560901b6044820152606490fd5b50670dbd2fc137a30000821115612035565b60405162461bcd60e51b815260206004820152600e60248201526d71206f7574206f662072616e676560901b6044820152606490fd5b50670dbd2fc137a30000821115612027565b80156122d25780670de0b6b3a764000080831292836122b9575b505f905b671bc16d674ec8000083121561229b57670de0b6b3a763ffff198301600184821316611bcf5781810290808205831490151715611bcf57818401935f8386129112908015821691151617611bcf578315611f0a57600160ff1b938185145f19821416611bcf578261224861221e61224261225096612236600d966007980561223083612224816121cf8580611c6a565b05809885846122148461220e83612202836121fc83829f836121f091611c6a565b059860038a0590611c8c565b97611c6a565b05946005860590611c8c565b93611c6a565b059e8f0590611c8c565b9c611c6a565b059960098b0590611c8c565b98611c6a565b0595600b870590611c8c565b94611c6a565b050590611c8c565b908160011b9180830560021490151715611bcf5767099e8db03256ce5d90818102918183051490151715611bcf5761228791611c8c565b91612290575090565b8114611bcf575f0390565b600290920591906001600160ff1b038114611bcf576001019061213f565b6ec097ce7bc90715b34b9f10000000000591505f61213b565b60405162461bcd60e51b815260206004820152601460248201527306c6e5761643a2078206d757374206265203e20360641b6044820152606490fdfea2646970667358221220ac5226c951569c537e778de2704809ec996267c63cfce1a8147068f04c90c13564736f6c63430008180033","linkReferences":{}},"methodIdentifiers":{"FORCE_RESOLVE_DELAY()":"5299287b","MAX_PROBABILITY()":"cc40a8ca","MIN_PROBABILITY()":"16342d37","WAD()":"6a146024","WAD_INT()":"e3aef017","agentRegistry()":"0d1cfcae","apiGated()":"394ffd03","createQuery(string,uint256,uint256,uint256,uint256,uint256,uint256,uint256,int128,string,address,string,string)":"b331ba02","forceResolve(uint256)":"a34803ad","getPayoutAmount(uint256,address)":"34633f90","getQueryInfo(uint256)":"33dde715","getQueryParams(uint256)":"81f82338","getQuerySource(uint256)":"8c3b925b","getReport(uint256,uint256)":"be87bcfc","getReportCount(uint256)":"05666d7b","hasClaimed(uint256,address)":"873f6f9e","hasReported(uint256,address)":"0f0c3fc4","isQueryActive(uint256)":"bec93763","owner()":"8da5cb5b","payouts(uint256,address)":"4c725ab5","protocolAPI()":"8383bba1","queries(uint256)":"ab9c67ad","queryCount()":"9b2aded4","recordPayoutClaim(uint256,address)":"481bf8a8","reports(uint256,uint256)":"2d283db5","reputationManager()":"6b868afb","setAPIGated(bool)":"74032ec1","setAgentRegistry(address)":"28342ecf","setProtocolAPI(address)":"37c22b34","setReputationManager(address)":"56a837f4","submitReport(uint256,uint256,address,uint256,string)":"4e2f7879","transferOwnership(address)":"f2fde38b"},"id":25}