{"abi":[{"type":"constructor","inputs":[{"name":"_reputationRegistry","type":"address","internalType":"address"}],"stateMutability":"nonpayable"},{"type":"function","name":"DEFAULT_TAG1","inputs":[],"outputs":[{"name":"","type":"string","internalType":"string"}],"stateMutability":"view"},{"type":"function","name":"VALUE_DECIMALS","inputs":[],"outputs":[{"name":"","type":"uint8","internalType":"uint8"}],"stateMutability":"view"},{"type":"function","name":"authorizeCaller","inputs":[{"name":"caller","type":"address","internalType":"address"}],"outputs":[],"stateMutability":"nonpayable"},{"type":"function","name":"authorizedCallers","inputs":[{"name":"","type":"address","internalType":"address"}],"outputs":[{"name":"","type":"bool","internalType":"bool"}],"stateMutability":"view"},{"type":"function","name":"getAgentReputation","inputs":[{"name":"agentId","type":"uint256","internalType":"uint256"}],"outputs":[{"name":"count","type":"uint64","internalType":"uint64"},{"name":"value","type":"int128","internalType":"int128"},{"name":"decimals","type":"uint8","internalType":"uint8"}],"stateMutability":"view"},{"type":"function","name":"getAgentReputationByTag","inputs":[{"name":"agentId","type":"uint256","internalType":"uint256"},{"name":"tag2","type":"string","internalType":"string"}],"outputs":[{"name":"count","type":"uint64","internalType":"uint64"},{"name":"value","type":"int128","internalType":"int128"},{"name":"decimals","type":"uint8","internalType":"uint8"}],"stateMutability":"view"},{"type":"function","name":"isAgentEligible","inputs":[{"name":"agentId","type":"uint256","internalType":"uint256"},{"name":"minReputation","type":"int128","internalType":"int128"},{"name":"tag2","type":"string","internalType":"string"}],"outputs":[{"name":"eligible","type":"bool","internalType":"bool"}],"stateMutability":"view"},{"type":"function","name":"owner","inputs":[],"outputs":[{"name":"","type":"address","internalType":"address"}],"stateMutability":"view"},{"type":"function","name":"reputationRegistry","inputs":[],"outputs":[{"name":"","type":"address","internalType":"contract IERC8004Reputation"}],"stateMutability":"view"},{"type":"function","name":"revokeCaller","inputs":[{"name":"caller","type":"address","internalType":"address"}],"outputs":[],"stateMutability":"nonpayable"},{"type":"function","name":"setReputationRegistry","inputs":[{"name":"_newRegistry","type":"address","internalType":"address"}],"outputs":[],"stateMutability":"nonpayable"},{"type":"function","name":"transferOwnership","inputs":[{"name":"newOwner","type":"address","internalType":"address"}],"outputs":[],"stateMutability":"nonpayable"},{"type":"function","name":"writeReputation","inputs":[{"name":"agentId","type":"uint256","internalType":"uint256"},{"name":"score","type":"int128","internalType":"int128"},{"name":"tag2","type":"string","internalType":"string"}],"outputs":[],"stateMutability":"nonpayable"},{"type":"event","name":"CallerAuthorized","inputs":[{"name":"caller","type":"address","indexed":true,"internalType":"address"}],"anonymous":false},{"type":"event","name":"CallerRevoked","inputs":[{"name":"caller","type":"address","indexed":true,"internalType":"address"}],"anonymous":false},{"type":"event","name":"OwnershipTransferred","inputs":[{"name":"oldOwner","type":"address","indexed":true,"internalType":"address"},{"name":"newOwner","type":"address","indexed":true,"internalType":"address"}],"anonymous":false},{"type":"event","name":"ReputationRegistryUpdated","inputs":[{"name":"oldRegistry","type":"address","indexed":true,"internalType":"address"},{"name":"newRegistry","type":"address","indexed":true,"internalType":"address"}],"anonymous":false},{"type":"event","name":"ReputationUpdated","inputs":[{"name":"agentId","type":"uint256","indexed":true,"internalType":"uint256"},{"name":"score","type":"int128","indexed":false,"internalType":"int128"},{"name":"tag1","type":"string","indexed":false,"internalType":"string"},{"name":"tag2","type":"string","indexed":false,"internalType":"string"}],"anonymous":false},{"type":"error","name":"NotAuthorized","inputs":[]},{"type":"error","name":"NotOwner","inputs":[]},{"type":"error","name":"ZeroAddress","inputs":[]}],"bytecode":{"object":"0x6080346100b457601f610ae038819003918201601f19168301916001600160401b038311848410176100b8578084926020946040528339810103126100b457516001600160a01b038116908190036100b45780156100805760018060a01b031990815f5416175f5533906001541617600155604051610a1390816100cd8239f35b60405162461bcd60e51b815260206004820152600c60248201526b5a65726f206164647265737360a01b6044820152606490fd5b5f80fd5b634e487b7160e01b5f52604160045260245ffdfe6080604081815260049081361015610015575f80fd5b5f925f3560e01c90816305ec94df14610585575080631e3ed79a146105545780632c388d5d146104d15780633f0ce7141461045b5780634a3044f9146103a6578063536fff6c146103675780638da5cb5b1461033e578063a5f3104614610316578063ad4ce55a146102fa578063b774353014610280578063c8db44e314610258578063cb43091f146101455763f2fde38b146100b0575f80fd5b34610141576020366003190112610141576001600160a01b038235818116939084900361013d57600154918216928333036101305784156101235750506001600160a01b03191682176001557f8be0079c531659141344cd1fd0a4f28419497f9722a3daafe3b4186f6b6457e08380a380f35b5163d92e233d60e01b8152fd5b516330cd747160e01b8152fd5b8480fd5b8280fd5b5082903461025457600319602036820112610141576101b39360609183519161016d8361077b565b85835285546001600160a01b031691602090876101c361018b6107cd565b89519b8c988997631037774b60e31b89528035908901526080602489015260848801906108a5565b9084878303016044880152610806565b84810392830160648601525201915afa80156102495782918391610210575b5167ffffffffffffffff929092168252600f9290920b602082015260ff9091166040820152606090f35b0390f35b9250505061023861020c9260603d606011610242575b61023081836107ab565b810190610864565b90935083926101e2565b503d610226565b5051903d90823e3d90fd5b5080fd5b838234610254578160031936011261025457905490516001600160a01b039091168152602090f35b50346101415760203660031901126101415781356001600160a01b03818116939184900361013d576001541633036102ec575081835260026020528220805460ff191690557f0491b0192bae7692618bfa4eff3f4942d2d8ec3300ef2e63d325b45e937c4ff18280a280f35b90516330cd747160e01b8152fd5b8382346102545781600319360112610254576020905160028152f35b8382346102545760209061033561032c3661073a565b92919091610922565b90519015158152f35b83823461025457816003193601126102545760015490516001600160a01b039091168152602090f35b50903461014157602036600319011261014157356001600160a01b0381169081900361014157818360ff92602095526002855220541690519015158152f35b5082903461025457806003193601126102545760243567ffffffffffffffff8111610141576103da6060913690860161070c565b909483516103e78161077b565b85815285546001600160a01b03169161041f6104016107cd565b948751998a9687958695631037774b60e31b875280359087016108e1565b03915afa80156102495782918391610210575167ffffffffffffffff929092168252600f9290920b602082015260ff9091166040820152606090f35b5034610141576020366003190112610141576001600160a01b0382358181169391929084900361013d578260015416330361013057831561012357505082546001600160a01b0319811683178455167f9e5e49ec105918e0e6e453fc58b5f7c68a2425e72ba1e5112eadeaf7505a7b2b8380a380f35b50346101415760203660031901126101415781356001600160a01b03818116939184900361013d576001541633036102ec578215610546575081835260026020528220805460ff191660011790557f6acfd92212f0ec670af78f8ba2273e4a85ac17023475650c25be0440602bff2d8280a280f35b905163d92e233d60e01b8152fd5b83823461025457816003193601126102545761020c906105726107cd565b9051918291602083526020830190610806565b929050346106fa576105963661073a565b9190949295335f52600260205260ff845f205416156106fe57505f546001600160a01b0316936105c46107cd565b94803b156106fa5784928351938491631e01b53f60e11b83528a85840152600f0b978860248401526044830160029052606483016101009052610104830161060b91610806565b600319908184820301608485015261062490888c610844565b83810391820160a48501525f8152601c820160c48501526020015f905260e483015f905201815a5f948591f180156106f0576106bc575b50507f897e536a89802032100cedd8a611485518f308c28b09a0417cc11500eefd0ac69392916106b69161068d6107cd565b946106a983519687968752606060208801526060870190610806565b9285840390860152610844565b0390a280f35b9091965067ffffffffffffffff82116106dd575081525f94816106b661065b565b604190634e487b7160e01b5f525260245ffd5b84513d5f823e3d90fd5b5f80fd5b63ea8e4eb560e01b81528490fd5b9181601f840112156106fa5782359167ffffffffffffffff83116106fa57602083818601950101116106fa57565b60606003198201126106fa576004359160243580600f0b81036106fa57916044359067ffffffffffffffff82116106fa576107779160040161070c565b9091565b6020810190811067ffffffffffffffff82111761079757604052565b634e487b7160e01b5f52604160045260245ffd5b90601f8019910116810190811067ffffffffffffffff82111761079757604052565b604051906040820182811067ffffffffffffffff82111761079757604052600c82526b736b635f616363757261637960a01b6020830152565b91908251928382525f5b848110610830575050825f602080949584010152601f8019910116010190565b602081830181015184830182015201610810565b908060209392818452848401375f828201840152601f01601f1916010190565b908160609103126106fa57805167ffffffffffffffff811681036106fa5791602082015180600f0b81036106fa5760409092015160ff811681036106fa5790565b9081518082526020808093019301915f5b8281106108c4575050505090565b83516001600160a01b0316855293810193928101926001016108b6565b93919261090361091f96946109119387526080602088015260808701906108a5565b908582036040870152610806565b926060818503910152610844565b90565b9260609192936040516109348161077b565b5f808252546001600160a01b03169161096c61094e6107cd565b9460405198899687958695631037774b60e31b8752600487016108e1565b03915afa9182156109d2575f905f936109a7575b5067ffffffffffffffff161561099c57600f0b90600f0b121590565b5f9150600f0b131590565b67ffffffffffffffff93506109cb915060603d6060116102425761023081836107ab565b5092610980565b6040513d5f823e3d90fdfea2646970667358221220b2b0ab3a1cc9ce6d256300f9c42aadf82f95277c32e000a07cd0f8bb171c768864736f6c63430008180033","linkReferences":{}},"methodIdentifiers":{"DEFAULT_TAG1()":"1e3ed79a","VALUE_DECIMALS()":"ad4ce55a","authorizeCaller(address)":"2c388d5d","authorizedCallers(address)":"536fff6c","getAgentReputation(uint256)":"cb43091f","getAgentReputationByTag(uint256,string)":"4a3044f9","isAgentEligible(uint256,int128,string)":"a5f31046","owner()":"8da5cb5b","reputationRegistry()":"c8db44e3","revokeCaller(address)":"b7743530","setReputationRegistry(address)":"3f0ce714","transferOwnership(address)":"f2fde38b","writeReputation(uint256,int128,string)":"05ec94df"},"id":3}