{"abi":[{"type":"constructor","inputs":[{"name":"_skcEngine","type":"address","internalType":"address"},{"name":"_protocolAPI","type":"address","internalType":"address"}],"stateMutability":"nonpayable"},{"type":"function","name":"apiGated","inputs":[],"outputs":[{"name":"","type":"bool","internalType":"bool"}],"stateMutability":"view"},{"type":"function","name":"createQuery","inputs":[{"name":"question","type":"string","internalType":"string"},{"name":"alpha","type":"uint256","internalType":"uint256"},{"name":"k","type":"uint256","internalType":"uint256"},{"name":"flatReward","type":"uint256","internalType":"uint256"},{"name":"bondAmount","type":"uint256","internalType":"uint256"},{"name":"liquidityParam","type":"uint256","internalType":"uint256"},{"name":"initialPrice","type":"uint256","internalType":"uint256"},{"name":"fundingAmount","type":"uint256","internalType":"uint256"},{"name":"minReputation","type":"int128","internalType":"int128"},{"name":"reputationTag","type":"string","internalType":"string"},{"name":"creator","type":"address","internalType":"address"},{"name":"queryChain","type":"string","internalType":"string"},{"name":"source","type":"string","internalType":"string"}],"outputs":[{"name":"queryId","type":"uint256","internalType":"uint256"}],"stateMutability":"nonpayable"},{"type":"function","name":"getActiveQueries","inputs":[],"outputs":[{"name":"","type":"uint256[]","internalType":"uint256[]"}],"stateMutability":"view"},{"type":"function","name":"getQueriesByCreator","inputs":[{"name":"creator","type":"address","internalType":"address"}],"outputs":[{"name":"","type":"uint256[]","internalType":"uint256[]"}],"stateMutability":"view"},{"type":"function","name":"getQueryCount","inputs":[],"outputs":[{"name":"","type":"uint256","internalType":"uint256"}],"stateMutability":"view"},{"type":"function","name":"isActive","inputs":[{"name":"queryId","type":"uint256","internalType":"uint256"}],"outputs":[{"name":"","type":"bool","internalType":"bool"}],"stateMutability":"view"},{"type":"function","name":"markResolved","inputs":[{"name":"queryId","type":"uint256","internalType":"uint256"}],"outputs":[],"stateMutability":"nonpayable"},{"type":"function","name":"owner","inputs":[],"outputs":[{"name":"","type":"address","internalType":"address"}],"stateMutability":"view"},{"type":"function","name":"protocolAPI","inputs":[],"outputs":[{"name":"","type":"address","internalType":"address"}],"stateMutability":"view"},{"type":"function","name":"setAPIGated","inputs":[{"name":"_gated","type":"bool","internalType":"bool"}],"outputs":[],"stateMutability":"nonpayable"},{"type":"function","name":"setProtocolAPI","inputs":[{"name":"_api","type":"address","internalType":"address"}],"outputs":[],"stateMutability":"nonpayable"},{"type":"function","name":"setSKCEngine","inputs":[{"name":"_engine","type":"address","internalType":"address"}],"outputs":[],"stateMutability":"nonpayable"},{"type":"function","name":"skcEngine","inputs":[],"outputs":[{"name":"","type":"address","internalType":"contract SKCEngine"}],"stateMutability":"view"},{"type":"function","name":"transferOwnership","inputs":[{"name":"newOwner","type":"address","internalType":"address"}],"outputs":[],"stateMutability":"nonpayable"},{"type":"event","name":"QueryDeployed","inputs":[{"name":"queryId","type":"uint256","indexed":true,"internalType":"uint256"},{"name":"creator","type":"address","indexed":true,"internalType":"address"},{"name":"question","type":"string","indexed":false,"internalType":"string"}],"anonymous":false},{"type":"error","name":"NotAuthorized","inputs":[]},{"type":"error","name":"NotOwner","inputs":[]},{"type":"error","name":"ZeroAddress","inputs":[]}],"bytecode":{"object":"0x6080346100e157601f610bf638819003918201601f19168301916001600160401b038311848410176100e55780849260409485528339810103126100e157610052602061004b836100f9565b92016100f9565b6001600160a01b039182169182156100ad575f80546001600160a01b03199081169094179055600280546001600160a81b0319169190921617600160a01b1790556001805490911633179055604051610ae8908161010e8239f35b60405162461bcd60e51b815260206004820152600c60248201526b5a65726f206164647265737360a01b6044820152606490fd5b5f80fd5b634e487b7160e01b5f52604160045260245ffd5b51906001600160a01b03821682036100e15756fe6080806040526004361015610012575f80fd5b5f3560e01c908163152e7cd2146107a75750806326c8d61d1461072f57806337c22b34146106e4578063394ffd03146106bf5780635f1b71801461067057806374032ec11461062157806382afd23b146105f25780638383bba1146105ca5780638da5cb5b146105a2578063b331ba0214610254578063c2ef93e3146101c9578063eb654707146101ab578063f113022e146101255763f2fde38b146100b6575f80fd5b34610121576020366003190112610121576100cf610804565b600154906001600160a01b0390818316330361010f57169081156100fd576001600160a01b03191617600155005b60405163d92e233d60e01b8152600490fd5b6040516330cd747160e01b8152600490fd5b5f80fd5b3461012157602080600319360112610121576001600160a01b03610147610804565b165f52600360205260405f20906040519081602084549182815201935f5260205f20915f905b828210610194576101908561018481890382610848565b604051918291826107c9565b0390f35b83548652948501946001938401939091019061016d565b34610121576020366003190112610121576101c76004356108bf565b005b34610121575f366003190112610121575f546040516326cab7b560e21b815290602090829060049082906001600160a01b03165afa8015610249575f90610216575b602090604051908152f35b506020813d602011610241575b8161023060209383610848565b81010312610121576020905161020b565b3d9150610223565b6040513d5f823e3d90fd5b34610121576101a03660031901126101215760043567ffffffffffffffff81116101215761028690369060040161081a565b90610104359182600f0b8303610121576101243567ffffffffffffffff8111610121576102b790369060040161081a565b93909261014435916001600160a01b03831683036101215767ffffffffffffffff6101643511610121576102f1366101643560040161081a565b95906101843567ffffffffffffffff81116101215761031490369060040161081a565b93909860025460ff8160a01c16908161058e575b5061057c575f54604051635998dd0160e11b81526101a06004820152998a956001600160a01b0390921694869485949193916103696101a487018e8d61086a565b91602435602488015260443560448801526064356064880152608435608488015260a43560a488015260c43560c488015260e43560e4880152600f0b610104870152600319868303016101248701526103c19261086a565b6001600160a01b038a16610144850152838103600319016101648501526103ea9290919061086a565b8181036003190161018483015260209a8b96610406929161086a565b03915a905f91f1938415610249575f9461054d575b506001600160a01b0382165f908152600386526040902080546801000000000000000091908281101561052557600181018083558110156105395786915f52875f20015560045490811015610525578461047e826001610496940160045561088a565b90919082549060031b91821b915f19901b1916179055565b6004545f198101919082116105115784927f794db00b21a57949afe651563e5f0a119a63dfd06e04676478e37d5f0b595e1f92845f526005885260405f20556006875260405f20600160ff1982541617905561050660405192839289845260018060a01b0316968984019161086a565b0390a3604051908152f35b634e487b7160e01b5f52601160045260245ffd5b634e487b7160e01b5f52604160045260245ffd5b634e487b7160e01b5f52603260045260245ffd5b9093508481813d8311610575575b6105658183610848565b810103126101215751928561041b565b503d61055b565b60405163ea8e4eb560e01b8152600490fd5b6001600160a01b031633141590508b610328565b34610121575f366003190112610121576001546040516001600160a01b039091168152602090f35b34610121575f366003190112610121576002546040516001600160a01b039091168152602090f35b34610121576020366003190112610121576004355f526006602052602060ff60405f2054166040519015158152f35b3461012157602036600319011261012157600435801515809103610121576001546001600160a01b0316330361010f576002805460ff60a01b191660a09290921b60ff60a01b16919091179055005b3461012157602036600319011261012157610689610804565b6001546001600160a01b0391908216330361010f571680156100fd576bffffffffffffffffffffffff60a01b5f5416175f555f80f35b34610121575f36600319011261012157602060ff60025460a01c166040519015158152f35b34610121576020366003190112610121576106fd610804565b6001546001600160a01b0391908216330361010f57166bffffffffffffffffffffffff60a01b60025416176002555f80f35b34610121575f36600319011261012157604051806004549182815260208091019260045f527f8a35acfbc15ff81a39ae7d344fd709f28e8600b4aa8c65c6b64bfe7fe36bd19b915f905b828210610790576101908561018481890382610848565b835486529485019460019384019390910190610779565b34610121575f366003190112610121575f546001600160a01b03168152602090f35b60209060206040818301928281528551809452019301915f5b8281106107f0575050505090565b8351855293810193928101926001016107e2565b600435906001600160a01b038216820361012157565b9181601f840112156101215782359167ffffffffffffffff8311610121576020838186019501011161012157565b90601f8019910116810190811067ffffffffffffffff82111761052557604052565b908060209392818452848401375f828201840152601f01601f1916010190565b6004548110156105395760045f527f8a35acfbc15ff81a39ae7d344fd709f28e8600b4aa8c65c6b64bfe7fe36bd19b01905f90565b90815f5260206006815260409060ff825f20541615610aac575f805483516333dde71560e01b8152600480820188905296926001600160a01b03928290602490829086165afa918215610aa2575f926109dd575b5050156109d6575f81815260068352838120805460ff19169055600583528390205485545f1991908281019081116109c357808203610995575b50508554801561098257905f9596816005959493019161096c8361088a565b909182549160031b1b1916905555845252812055565b603187634e487b7160e01b5f525260245ffd5b61099e9061088a565b90549060031b1c6109b28161047e8461088a565b5f5260058452845f20555f8061094d565b601188634e487b7160e01b5f525260245ffd5b5050509050565b9091503d805f843e6109ef8184610848565b820160c0838203126101215782519067ffffffffffffffff9182811161012157840181601f82011215610121578051928311610a8f57875191610a3b601f8501601f1916890184610848565b838352878483010111610121579086915f5b848110610a7b5750505f92010152818501519081160361012157606001518015158103610121575f80610913565b818101840151838201850152889301610a4d565b60418a634e487b7160e01b5f525260245ffd5b85513d5f823e3d90fd5b5050905056fea26469706673582212205683371e3a4c6cfe421aba56488be9aea021a28b1d98bb7da8cdd5f4674375c764736f6c63430008180033","linkReferences":{}},"methodIdentifiers":{"apiGated()":"394ffd03","createQuery(string,uint256,uint256,uint256,uint256,uint256,uint256,uint256,int128,string,address,string,string)":"b331ba02","getActiveQueries()":"26c8d61d","getQueriesByCreator(address)":"f113022e","getQueryCount()":"c2ef93e3","isActive(uint256)":"82afd23b","markResolved(uint256)":"eb654707","owner()":"8da5cb5b","protocolAPI()":"8383bba1","setAPIGated(bool)":"74032ec1","setProtocolAPI(address)":"37c22b34","setSKCEngine(address)":"5f1b7180","skcEngine()":"152e7cd2","transferOwnership(address)":"f2fde38b"},"id":23}