{"abi":[{"type":"constructor","inputs":[{"name":"_skcEngine","type":"address","internalType":"address"},{"name":"_protocolAPI","type":"address","internalType":"address"}],"stateMutability":"nonpayable"},{"type":"function","name":"apiGated","inputs":[],"outputs":[{"name":"","type":"bool","internalType":"bool"}],"stateMutability":"view"},{"type":"function","name":"createQuery","inputs":[{"name":"question","type":"string","internalType":"string"},{"name":"alpha","type":"uint256","internalType":"uint256"},{"name":"k","type":"uint256","internalType":"uint256"},{"name":"flatReward","type":"uint256","internalType":"uint256"},{"name":"bondAmount","type":"uint256","internalType":"uint256"},{"name":"liquidityParam","type":"uint256","internalType":"uint256"},{"name":"initialPrice","type":"uint256","internalType":"uint256"},{"name":"fundingAmount","type":"uint256","internalType":"uint256"},{"name":"minReputation","type":"int128","internalType":"int128"},{"name":"reputationTag","type":"string","internalType":"string"},{"name":"creator","type":"address","internalType":"address"}],"outputs":[{"name":"queryId","type":"uint256","internalType":"uint256"}],"stateMutability":"nonpayable"},{"type":"function","name":"getActiveQueries","inputs":[],"outputs":[{"name":"","type":"uint256[]","internalType":"uint256[]"}],"stateMutability":"view"},{"type":"function","name":"getQueriesByCreator","inputs":[{"name":"creator","type":"address","internalType":"address"}],"outputs":[{"name":"","type":"uint256[]","internalType":"uint256[]"}],"stateMutability":"view"},{"type":"function","name":"getQueryCount","inputs":[],"outputs":[{"name":"","type":"uint256","internalType":"uint256"}],"stateMutability":"view"},{"type":"function","name":"isActive","inputs":[{"name":"queryId","type":"uint256","internalType":"uint256"}],"outputs":[{"name":"","type":"bool","internalType":"bool"}],"stateMutability":"view"},{"type":"function","name":"markResolved","inputs":[{"name":"queryId","type":"uint256","internalType":"uint256"}],"outputs":[],"stateMutability":"nonpayable"},{"type":"function","name":"owner","inputs":[],"outputs":[{"name":"","type":"address","internalType":"address"}],"stateMutability":"view"},{"type":"function","name":"protocolAPI","inputs":[],"outputs":[{"name":"","type":"address","internalType":"address"}],"stateMutability":"view"},{"type":"function","name":"setAPIGated","inputs":[{"name":"_gated","type":"bool","internalType":"bool"}],"outputs":[],"stateMutability":"nonpayable"},{"type":"function","name":"setProtocolAPI","inputs":[{"name":"_api","type":"address","internalType":"address"}],"outputs":[],"stateMutability":"nonpayable"},{"type":"function","name":"setSKCEngine","inputs":[{"name":"_engine","type":"address","internalType":"address"}],"outputs":[],"stateMutability":"nonpayable"},{"type":"function","name":"skcEngine","inputs":[],"outputs":[{"name":"","type":"address","internalType":"contract SKCEngine"}],"stateMutability":"view"},{"type":"function","name":"transferOwnership","inputs":[{"name":"newOwner","type":"address","internalType":"address"}],"outputs":[],"stateMutability":"nonpayable"},{"type":"event","name":"QueryDeployed","inputs":[{"name":"queryId","type":"uint256","indexed":true,"internalType":"uint256"},{"name":"creator","type":"address","indexed":true,"internalType":"address"},{"name":"question","type":"string","indexed":false,"internalType":"string"}],"anonymous":false},{"type":"error","name":"NotAuthorized","inputs":[]},{"type":"error","name":"NotOwner","inputs":[]},{"type":"error","name":"ZeroAddress","inputs":[]}],"bytecode":{"object":"0x6080346100e157601f610b4c38819003918201601f19168301916001600160401b038311848410176100e55780849260409485528339810103126100e157610052602061004b836100f9565b92016100f9565b6001600160a01b039182169182156100ad575f80546001600160a01b03199081169094179055600280546001600160a81b0319169190921617600160a01b1790556001805490911633179055604051610a3e908161010e8239f35b60405162461bcd60e51b815260206004820152600c60248201526b5a65726f206164647265737360a01b6044820152606490fd5b5f80fd5b634e487b7160e01b5f52604160045260245ffd5b51906001600160a01b03821682036100e15756fe6080806040526004361015610012575f80fd5b5f3560e01c908163152e7cd2146106fd5750806326c8d61d1461068557806337c22b341461063a578063394ffd03146106155780635f1b7180146105c657806374032ec11461057757806382afd23b146105485780638383bba11461052057806384a8945c1461027c5780638da5cb5b14610254578063c2ef93e3146101c9578063eb654707146101ab578063f113022e146101255763f2fde38b146100b6575f80fd5b34610121576020366003190112610121576100cf61075a565b600154906001600160a01b0390818316330361010f57169081156100fd576001600160a01b03191617600155005b60405163d92e233d60e01b8152600490fd5b6040516330cd747160e01b8152600490fd5b5f80fd5b3461012157602080600319360112610121576001600160a01b0361014761075a565b165f52600360205260405f20906040519081602084549182815201935f5260205f20915f905b82821061019457610190856101848189038261079e565b6040519182918261071f565b0390f35b83548652948501946001938401939091019061016d565b34610121576020366003190112610121576101c7600435610815565b005b34610121575f366003190112610121575f546040516326cab7b560e21b815290602090829060049082906001600160a01b03165afa8015610249575f90610216575b602090604051908152f35b506020813d602011610241575b816102306020938361079e565b81010312610121576020905161020b565b3d9150610223565b6040513d5f823e3d90fd5b34610121575f366003190112610121576001546040516001600160a01b039091168152602090f35b34610121576101603660031901126101215767ffffffffffffffff600435818111610121576102af903690600401610770565b610104359283600f0b84036101215761012435908111610121576102d7903690600401610770565b9261014435916001600160a01b03908184168403610121576002548260ff8260a01c169182610512575b505061050057815f54169061038c604051988998899363212a251760e21b8552610160600486015261033861016486018b8a6107c0565b92602435602487015260443560448701526064356064870152608435608487015260a43560a487015260c43560c487015260e43560e4870152600f0b610104860152600319858403016101248601526107c0565b91838616610144830152815f60209a8b9503925af1948515610249575f956104d1575b508083165f526003865260405f208054906801000000000000000091828110156104a957600181018083558110156104bd5787915f52885f200155600454908110156104a9578561040982600161042194016004556107e0565b90919082549060031b91821b915f19901b1916179055565b6004545f198101939084116104955761048a7f794db00b21a57949afe651563e5f0a119a63dfd06e04676478e37d5f0b595e1f938795865f5260058a5260405f20556006895260405f20600160ff198254161790556040519384938a85521696898401916107c0565b0390a3604051908152f35b634e487b7160e01b5f52601160045260245ffd5b634e487b7160e01b5f52604160045260245ffd5b634e487b7160e01b5f52603260045260245ffd5b9094508581813d83116104f9575b6104e9818361079e565b81010312610121575193866103af565b503d6104df565b60405163ea8e4eb560e01b8152600490fd5b909150163314158289610301565b34610121575f366003190112610121576002546040516001600160a01b039091168152602090f35b34610121576020366003190112610121576004355f526006602052602060ff60405f2054166040519015158152f35b3461012157602036600319011261012157600435801515809103610121576001546001600160a01b0316330361010f576002805460ff60a01b191660a09290921b60ff60a01b16919091179055005b34610121576020366003190112610121576105df61075a565b6001546001600160a01b0391908216330361010f571680156100fd576bffffffffffffffffffffffff60a01b5f5416175f555f80f35b34610121575f36600319011261012157602060ff60025460a01c166040519015158152f35b346101215760203660031901126101215761065361075a565b6001546001600160a01b0391908216330361010f57166bffffffffffffffffffffffff60a01b60025416176002555f80f35b34610121575f36600319011261012157604051806004549182815260208091019260045f527f8a35acfbc15ff81a39ae7d344fd709f28e8600b4aa8c65c6b64bfe7fe36bd19b915f905b8282106106e657610190856101848189038261079e565b8354865294850194600193840193909101906106cf565b34610121575f366003190112610121575f546001600160a01b03168152602090f35b60209060206040818301928281528551809452019301915f5b828110610746575050505090565b835185529381019392810192600101610738565b600435906001600160a01b038216820361012157565b9181601f840112156101215782359167ffffffffffffffff8311610121576020838186019501011161012157565b90601f8019910116810190811067ffffffffffffffff8211176104a957604052565b908060209392818452848401375f828201840152601f01601f1916010190565b6004548110156104bd5760045f527f8a35acfbc15ff81a39ae7d344fd709f28e8600b4aa8c65c6b64bfe7fe36bd19b01905f90565b90815f5260206006815260409060ff825f20541615610a02575f805483516333dde71560e01b8152600480820188905296926001600160a01b03928290602490829086165afa9182156109f8575f92610933575b50501561092c575f81815260068352838120805460ff19169055600583528390205485545f199190828101908111610919578082036108eb575b5050855480156108d857905f959681600595949301916108c2836107e0565b909182549160031b1b1916905555845252812055565b603187634e487b7160e01b5f525260245ffd5b6108f4906107e0565b90549060031b1c61090881610409846107e0565b5f5260058452845f20555f806108a3565b601188634e487b7160e01b5f525260245ffd5b5050509050565b9091503d805f843e610945818461079e565b820160c0838203126101215782519067ffffffffffffffff9182811161012157840181601f820112156101215780519283116109e557875191610991601f8501601f191689018461079e565b838352878483010111610121579086915f5b8481106109d15750505f92010152818501519081160361012157606001518015158103610121575f80610869565b8181018401518382018501528893016109a3565b60418a634e487b7160e01b5f525260245ffd5b85513d5f823e3d90fd5b5050905056fea264697066735822122065a90c7a9a8e734d6e83675b67dc635dbc041f5fc5e08260c5bbc0a2deab686764736f6c63430008180033","linkReferences":{}},"methodIdentifiers":{"apiGated()":"394ffd03","createQuery(string,uint256,uint256,uint256,uint256,uint256,uint256,uint256,int128,string,address)":"84a8945c","getActiveQueries()":"26c8d61d","getQueriesByCreator(address)":"f113022e","getQueryCount()":"c2ef93e3","isActive(uint256)":"82afd23b","markResolved(uint256)":"eb654707","owner()":"8da5cb5b","protocolAPI()":"8383bba1","setAPIGated(bool)":"74032ec1","setProtocolAPI(address)":"37c22b34","setSKCEngine(address)":"5f1b7180","skcEngine()":"152e7cd2","transferOwnership(address)":"f2fde38b"},"id":21}